{
  "_format": "hh-sol-artifact-1",
  "contractName": "Web3PaymentGateway",
  "sourceName": "contracts/Payblauq_Merchant.sol",
  "abi": [
    {
      "inputs": [
        {
          "internalType": "address",
          "name": "_usdtAddress",
          "type": "address"
        }
      ],
      "stateMutability": "nonpayable",
      "type": "constructor"
    },
    {
      "anonymous": false,
      "inputs": [
        {
          "indexed": true,
          "internalType": "address",
          "name": "merchantAddress",
          "type": "address"
        },
        {
          "indexed": false,
          "internalType": "uint256",
          "name": "time",
          "type": "uint256"
        }
      ],
      "name": "MerchantAdded",
      "type": "event"
    },
    {
      "anonymous": false,
      "inputs": [
        {
          "indexed": true,
          "internalType": "address",
          "name": "merchantAddress",
          "type": "address"
        },
        {
          "indexed": false,
          "internalType": "uint256",
          "name": "time",
          "type": "uint256"
        }
      ],
      "name": "MerchantRemoved",
      "type": "event"
    },
    {
      "anonymous": false,
      "inputs": [
        {
          "indexed": true,
          "internalType": "bytes32",
          "name": "linkId",
          "type": "bytes32"
        },
        {
          "indexed": true,
          "internalType": "address",
          "name": "merchant",
          "type": "address"
        },
        {
          "indexed": false,
          "internalType": "uint256",
          "name": "amountInUSDT",
          "type": "uint256"
        }
      ],
      "name": "PaymentLinkGenerated",
      "type": "event"
    },
    {
      "anonymous": false,
      "inputs": [
        {
          "indexed": true,
          "internalType": "address",
          "name": "from",
          "type": "address"
        },
        {
          "indexed": false,
          "internalType": "uint256",
          "name": "amountInUSDT",
          "type": "uint256"
        }
      ],
      "name": "PaymentReceived",
      "type": "event"
    },
    {
      "anonymous": false,
      "inputs": [
        {
          "indexed": true,
          "internalType": "bytes32",
          "name": "role",
          "type": "bytes32"
        },
        {
          "indexed": true,
          "internalType": "bytes32",
          "name": "previousAdminRole",
          "type": "bytes32"
        },
        {
          "indexed": true,
          "internalType": "bytes32",
          "name": "newAdminRole",
          "type": "bytes32"
        }
      ],
      "name": "RoleAdminChanged",
      "type": "event"
    },
    {
      "anonymous": false,
      "inputs": [
        {
          "indexed": true,
          "internalType": "bytes32",
          "name": "role",
          "type": "bytes32"
        },
        {
          "indexed": true,
          "internalType": "address",
          "name": "account",
          "type": "address"
        },
        {
          "indexed": true,
          "internalType": "address",
          "name": "sender",
          "type": "address"
        }
      ],
      "name": "RoleGranted",
      "type": "event"
    },
    {
      "anonymous": false,
      "inputs": [
        {
          "indexed": true,
          "internalType": "bytes32",
          "name": "role",
          "type": "bytes32"
        },
        {
          "indexed": true,
          "internalType": "address",
          "name": "account",
          "type": "address"
        },
        {
          "indexed": true,
          "internalType": "address",
          "name": "sender",
          "type": "address"
        }
      ],
      "name": "RoleRevoked",
      "type": "event"
    },
    {
      "anonymous": false,
      "inputs": [
        {
          "indexed": true,
          "internalType": "address",
          "name": "to",
          "type": "address"
        },
        {
          "indexed": false,
          "internalType": "uint256",
          "name": "amount",
          "type": "uint256"
        }
      ],
      "name": "Withdrawal",
      "type": "event"
    },
    {
      "inputs": [],
      "name": "DEFAULT_ADMIN_ROLE",
      "outputs": [
        {
          "internalType": "bytes32",
          "name": "",
          "type": "bytes32"
        }
      ],
      "stateMutability": "view",
      "type": "function"
    },
    {
      "inputs": [],
      "name": "addMerchant",
      "outputs": [],
      "stateMutability": "nonpayable",
      "type": "function"
    },
    {
      "inputs": [
        {
          "internalType": "uint256",
          "name": "amountInUsdt",
          "type": "uint256"
        }
      ],
      "name": "generatePaymentLink",
      "outputs": [
        {
          "internalType": "bytes32",
          "name": "",
          "type": "bytes32"
        }
      ],
      "stateMutability": "nonpayable",
      "type": "function"
    },
    {
      "inputs": [],
      "name": "getBalance",
      "outputs": [
        {
          "internalType": "uint256",
          "name": "",
          "type": "uint256"
        }
      ],
      "stateMutability": "view",
      "type": "function"
    },
    {
      "inputs": [
        {
          "internalType": "bytes32",
          "name": "role",
          "type": "bytes32"
        }
      ],
      "name": "getRoleAdmin",
      "outputs": [
        {
          "internalType": "bytes32",
          "name": "",
          "type": "bytes32"
        }
      ],
      "stateMutability": "view",
      "type": "function"
    },
    {
      "inputs": [
        {
          "internalType": "bytes32",
          "name": "role",
          "type": "bytes32"
        },
        {
          "internalType": "address",
          "name": "account",
          "type": "address"
        }
      ],
      "name": "grantRole",
      "outputs": [],
      "stateMutability": "nonpayable",
      "type": "function"
    },
    {
      "inputs": [
        {
          "internalType": "bytes32",
          "name": "role",
          "type": "bytes32"
        },
        {
          "internalType": "address",
          "name": "account",
          "type": "address"
        }
      ],
      "name": "hasRole",
      "outputs": [
        {
          "internalType": "bool",
          "name": "",
          "type": "bool"
        }
      ],
      "stateMutability": "view",
      "type": "function"
    },
    {
      "inputs": [
        {
          "internalType": "address",
          "name": "",
          "type": "address"
        }
      ],
      "name": "merchants",
      "outputs": [
        {
          "internalType": "bool",
          "name": "",
          "type": "bool"
        }
      ],
      "stateMutability": "view",
      "type": "function"
    },
    {
      "inputs": [],
      "name": "owner",
      "outputs": [
        {
          "internalType": "address",
          "name": "",
          "type": "address"
        }
      ],
      "stateMutability": "view",
      "type": "function"
    },
    {
      "inputs": [
        {
          "internalType": "bytes32",
          "name": "linkId",
          "type": "bytes32"
        }
      ],
      "name": "payWithLink",
      "outputs": [],
      "stateMutability": "nonpayable",
      "type": "function"
    },
    {
      "inputs": [
        {
          "internalType": "bytes32",
          "name": "",
          "type": "bytes32"
        }
      ],
      "name": "paymentDetails",
      "outputs": [
        {
          "internalType": "uint256",
          "name": "amount",
          "type": "uint256"
        },
        {
          "internalType": "address",
          "name": "merchantAddress",
          "type": "address"
        }
      ],
      "stateMutability": "view",
      "type": "function"
    },
    {
      "inputs": [
        {
          "internalType": "bytes32",
          "name": "role",
          "type": "bytes32"
        },
        {
          "internalType": "address",
          "name": "account",
          "type": "address"
        }
      ],
      "name": "renounceRole",
      "outputs": [],
      "stateMutability": "nonpayable",
      "type": "function"
    },
    {
      "inputs": [
        {
          "internalType": "bytes32",
          "name": "role",
          "type": "bytes32"
        },
        {
          "internalType": "address",
          "name": "account",
          "type": "address"
        }
      ],
      "name": "revokeRole",
      "outputs": [],
      "stateMutability": "nonpayable",
      "type": "function"
    },
    {
      "inputs": [
        {
          "internalType": "bytes4",
          "name": "interfaceId",
          "type": "bytes4"
        }
      ],
      "name": "supportsInterface",
      "outputs": [
        {
          "internalType": "bool",
          "name": "",
          "type": "bool"
        }
      ],
      "stateMutability": "view",
      "type": "function"
    },
    {
      "inputs": [],
      "name": "usdtAddress",
      "outputs": [
        {
          "internalType": "address",
          "name": "",
          "type": "address"
        }
      ],
      "stateMutability": "view",
      "type": "function"
    },
    {
      "inputs": [
        {
          "internalType": "address",
          "name": "",
          "type": "address"
        }
      ],
      "name": "usdtBalances",
      "outputs": [
        {
          "internalType": "uint256",
          "name": "",
          "type": "uint256"
        }
      ],
      "stateMutability": "view",
      "type": "function"
    },
    {
      "inputs": [
        {
          "internalType": "uint256",
          "name": "amount",
          "type": "uint256"
        }
      ],
      "name": "withdraw",
      "outputs": [],
      "stateMutability": "nonpayable",
      "type": "function"
    }
  ],
  "bytecode": "0x60806040523480156200001157600080fd5b506040516200206f3803806200206f833981810160405281019062000037919062000132565b600160008190555033600260006101000a81548173ffffffffffffffffffffffffffffffffffffffff021916908373ffffffffffffffffffffffffffffffffffffffff16021790555080600360006101000a81548173ffffffffffffffffffffffffffffffffffffffff021916908373ffffffffffffffffffffffffffffffffffffffff1602179055505062000164565b600080fd5b600073ffffffffffffffffffffffffffffffffffffffff82169050919050565b6000620000fa82620000cd565b9050919050565b6200010c81620000ed565b81146200011857600080fd5b50565b6000815190506200012c8162000101565b92915050565b6000602082840312156200014b576200014a620000c8565b5b60006200015b848285016200011b565b91505092915050565b611efb80620001746000396000f3fe608060405234801561001057600080fd5b506004361061010b5760003560e01c80638da5cb5b116100a2578063cfbacaa211610071578063cfbacaa2146102cc578063d547741f146102fd578063ee14e93914610319578063f50ad61714610349578063f53546ed146103535761010b565b80638da5cb5b1461024257806391d14854146102605780639ab4a44514610290578063a217fddf146102ae5761010b565b80632f2ff15d116100de5780632f2ff15d146101aa57806336568abe146101c6578063582489cb146101e25780636968d714146102125761010b565b806301ffc9a71461011057806312065fe014610140578063248a9ca31461015e5780632e1a7d4d1461018e575b600080fd5b61012a6004803603810190610125919061147c565b61036f565b60405161013791906114c4565b60405180910390f35b6101486103e9565b60405161015591906114f8565b60405180910390f35b61017860048036038101906101739190611549565b610430565b6040516101859190611585565b60405180910390f35b6101a860048036038101906101a391906115cc565b610450565b005b6101c460048036038101906101bf9190611657565b610773565b005b6101e060048036038101906101db9190611657565b610794565b005b6101fc60048036038101906101f79190611697565b610817565b60405161020991906114f8565b60405180910390f35b61022c600480360381019061022791906115cc565b61082f565b6040516102399190611585565b60405180910390f35b61024a610a24565b60405161025791906116d3565b60405180910390f35b61027a60048036038101906102759190611657565b610a4a565b60405161028791906114c4565b60405180910390f35b610298610ab5565b6040516102a591906116d3565b60405180910390f35b6102b6610adb565b6040516102c39190611585565b60405180910390f35b6102e660048036038101906102e19190611549565b610ae2565b6040516102f49291906116ee565b60405180910390f35b61031760048036038101906103129190611657565b610b26565b005b610333600480360381019061032e9190611697565b610b47565b60405161034091906114c4565b60405180910390f35b610351610b67565b005b61036d60048036038101906103689190611549565b610c0f565b005b60007f7965db0b000000000000000000000000000000000000000000000000000000007bffffffffffffffffffffffffffffffffffffffffffffffffffffffff1916827bffffffffffffffffffffffffffffffffffffffffffffffffffffffff191614806103e257506103e182610ebd565b5b9050919050565b6000600560003373ffffffffffffffffffffffffffffffffffffffff1673ffffffffffffffffffffffffffffffffffffffff16815260200190815260200160002054905090565b600060016000838152602001908152602001600020600101549050919050565b60011515600460003373ffffffffffffffffffffffffffffffffffffffff1673ffffffffffffffffffffffffffffffffffffffff16815260200190815260200160002060009054906101000a900460ff161515146104e3576040517f08c379a00000000000000000000000000000000000000000000000000000000081526004016104da9061179a565b60405180910390fd5b60008111610526576040517f08c379a000000000000000000000000000000000000000000000000000000000815260040161051d90611806565b60405180910390fd5b600560003373ffffffffffffffffffffffffffffffffffffffff1673ffffffffffffffffffffffffffffffffffffffff168152602001908152602001600020548111156105a8576040517f08c379a000000000000000000000000000000000000000000000000000000000815260040161059f90611872565b60405180910390fd5b6105fa81600560003373ffffffffffffffffffffffffffffffffffffffff1673ffffffffffffffffffffffffffffffffffffffff16815260200190815260200160002054610f2790919063ffffffff16565b600560003373ffffffffffffffffffffffffffffffffffffffff1673ffffffffffffffffffffffffffffffffffffffff168152602001908152602001600020819055506000600360009054906101000a900473ffffffffffffffffffffffffffffffffffffffff1690508073ffffffffffffffffffffffffffffffffffffffff1663a9059cbb33846040518363ffffffff1660e01b815260040161069f929190611892565b6020604051808303816000875af11580156106be573d6000803e3d6000fd5b505050506040513d601f19601f820116820180604052508101906106e291906118e7565b610721576040517f08c379a000000000000000000000000000000000000000000000000000000000815260040161071890611960565b60405180910390fd5b3373ffffffffffffffffffffffffffffffffffffffff167f7fcf532c15f0a6db0bd6d0e038bea71d30d808c7d98cb3bf7268a95bf5081b658360405161076791906114f8565b60405180910390a25050565b61077c82610430565b61078581610f3d565b61078f8383610f51565b505050565b61079c611031565b73ffffffffffffffffffffffffffffffffffffffff168173ffffffffffffffffffffffffffffffffffffffff1614610809576040517f08c379a0000000000000000000000000000000000000000000000000000000008152600401610800906119f2565b60405180910390fd5b6108138282611039565b5050565b60056020528060005260406000206000915090505481565b600060011515600460003373ffffffffffffffffffffffffffffffffffffffff1673ffffffffffffffffffffffffffffffffffffffff16815260200190815260200160002060009054906101000a900460ff161515146108c4576040517f08c379a00000000000000000000000000000000000000000000000000000000081526004016108bb9061179a565b60405180910390fd5b60008211610907576040517f08c379a00000000000000000000000000000000000000000000000000000000081526004016108fe90611806565b60405180910390fd5b600060405180604001604052808481526020013373ffffffffffffffffffffffffffffffffffffffff1681525090506000338460405160200161094b929190611a7b565b60405160208183030381529060405280519060200120905081600660008381526020019081526020016000206000820151816000015560208201518160010160006101000a81548173ffffffffffffffffffffffffffffffffffffffff021916908373ffffffffffffffffffffffffffffffffffffffff1602179055509050503373ffffffffffffffffffffffffffffffffffffffff16817f36f0a2c2e5179ae5ab1ba33a22a89adb9069cdad08d3244d2cd6535ec853d9a886604051610a1291906114f8565b60405180910390a38092505050919050565b600260009054906101000a900473ffffffffffffffffffffffffffffffffffffffff1681565b60006001600084815260200190815260200160002060000160008373ffffffffffffffffffffffffffffffffffffffff1673ffffffffffffffffffffffffffffffffffffffff16815260200190815260200160002060009054906101000a900460ff16905092915050565b600360009054906101000a900473ffffffffffffffffffffffffffffffffffffffff1681565b6000801b81565b60066020528060005260406000206000915090508060000154908060010160009054906101000a900473ffffffffffffffffffffffffffffffffffffffff16905082565b610b2f82610430565b610b3881610f3d565b610b428383611039565b505050565b60046020528060005260406000206000915054906101000a900460ff1681565b6001600460003373ffffffffffffffffffffffffffffffffffffffff1673ffffffffffffffffffffffffffffffffffffffff16815260200190815260200160002060006101000a81548160ff0219169083151502179055503373ffffffffffffffffffffffffffffffffffffffff167fdcd9b74e47ad7a2b13791ca55a80544333071f0ee9d577fcd2cc70aa6c93daa042604051610c0591906114f8565b60405180910390a2565b6000600660008381526020019081526020016000206000015411610c68576040517f08c379a0000000000000000000000000000000000000000000000000000000008152600401610c5f90611af3565b60405180910390fd5b6000600660008381526020019081526020016000206000015490506000600360009054906101000a900473ffffffffffffffffffffffffffffffffffffffff1690508073ffffffffffffffffffffffffffffffffffffffff166323b872dd3330856040518463ffffffff1660e01b8152600401610ce793929190611b13565b6020604051808303816000875af1158015610d06573d6000803e3d6000fd5b505050506040513d601f19601f82011682018060405250810190610d2a91906118e7565b610d69576040517f08c379a0000000000000000000000000000000000000000000000000000000008152600401610d6090611960565b60405180910390fd5b610df182600560006006600088815260200190815260200160002060010160009054906101000a900473ffffffffffffffffffffffffffffffffffffffff1673ffffffffffffffffffffffffffffffffffffffff1673ffffffffffffffffffffffffffffffffffffffff1681526020019081526020016000205461111b90919063ffffffff16565b600560006006600087815260200190815260200160002060010160009054906101000a900473ffffffffffffffffffffffffffffffffffffffff1673ffffffffffffffffffffffffffffffffffffffff1673ffffffffffffffffffffffffffffffffffffffff168152602001908152602001600020819055503373ffffffffffffffffffffffffffffffffffffffff167f6ef95f06320e7a25a04a175ca677b7052bdd97131872c2192525a629f51be77083604051610eb091906114f8565b60405180910390a2505050565b60007f01ffc9a7000000000000000000000000000000000000000000000000000000007bffffffffffffffffffffffffffffffffffffffffffffffffffffffff1916827bffffffffffffffffffffffffffffffffffffffffffffffffffffffff1916149050919050565b60008183610f359190611b79565b905092915050565b610f4e81610f49611031565b611131565b50565b610f5b8282610a4a565b61102d57600180600084815260200190815260200160002060000160008373ffffffffffffffffffffffffffffffffffffffff1673ffffffffffffffffffffffffffffffffffffffff16815260200190815260200160002060006101000a81548160ff021916908315150217905550610fd2611031565b73ffffffffffffffffffffffffffffffffffffffff168173ffffffffffffffffffffffffffffffffffffffff16837f2f8788117e7eff1d82e926ec794901d17c78024a50270940304540a733656f0d60405160405180910390a45b5050565b600033905090565b6110438282610a4a565b156111175760006001600084815260200190815260200160002060000160008373ffffffffffffffffffffffffffffffffffffffff1673ffffffffffffffffffffffffffffffffffffffff16815260200190815260200160002060006101000a81548160ff0219169083151502179055506110bc611031565b73ffffffffffffffffffffffffffffffffffffffff168173ffffffffffffffffffffffffffffffffffffffff16837ff6391f5c32d9c69d2a47ea670b442974b53935d1edc7fd64eb21e047a839171b60405160405180910390a45b5050565b600081836111299190611bad565b905092915050565b61113b8282610a4a565b6111b257611148816111b6565b6111568360001c60206111e3565b604051602001611167929190611cea565b6040516020818303038152906040526040517f08c379a00000000000000000000000000000000000000000000000000000000081526004016111a99190611d6e565b60405180910390fd5b5050565b60606111dc8273ffffffffffffffffffffffffffffffffffffffff16601460ff166111e3565b9050919050565b6060600060028360026111f69190611d90565b6112009190611bad565b67ffffffffffffffff81111561121957611218611dd2565b5b6040519080825280601f01601f19166020018201604052801561124b5781602001600182028036833780820191505090505b5090507f30000000000000000000000000000000000000000000000000000000000000008160008151811061128357611282611e01565b5b60200101907effffffffffffffffffffffffffffffffffffffffffffffffffffffffffffff1916908160001a9053507f7800000000000000000000000000000000000000000000000000000000000000816001815181106112e7576112e6611e01565b5b60200101907effffffffffffffffffffffffffffffffffffffffffffffffffffffffffffff1916908160001a905350600060018460026113279190611d90565b6113319190611bad565b90505b60018111156113d1577f3031323334353637383961626364656600000000000000000000000000000000600f86166010811061137357611372611e01565b5b1a60f81b82828151811061138a57611389611e01565b5b60200101907effffffffffffffffffffffffffffffffffffffffffffffffffffffffffffff1916908160001a905350600485901c9450806113ca90611e30565b9050611334565b5060008414611415576040517f08c379a000000000000000000000000000000000000000000000000000000000815260040161140c90611ea5565b60405180910390fd5b8091505092915050565b600080fd5b60007fffffffff0000000000000000000000000000000000000000000000000000000082169050919050565b61145981611424565b811461146457600080fd5b50565b60008135905061147681611450565b92915050565b6000602082840312156114925761149161141f565b5b60006114a084828501611467565b91505092915050565b60008115159050919050565b6114be816114a9565b82525050565b60006020820190506114d960008301846114b5565b92915050565b6000819050919050565b6114f2816114df565b82525050565b600060208201905061150d60008301846114e9565b92915050565b6000819050919050565b61152681611513565b811461153157600080fd5b50565b6000813590506115438161151d565b92915050565b60006020828403121561155f5761155e61141f565b5b600061156d84828501611534565b91505092915050565b61157f81611513565b82525050565b600060208201905061159a6000830184611576565b92915050565b6115a9816114df565b81146115b457600080fd5b50565b6000813590506115c6816115a0565b92915050565b6000602082840312156115e2576115e161141f565b5b60006115f0848285016115b7565b91505092915050565b600073ffffffffffffffffffffffffffffffffffffffff82169050919050565b6000611624826115f9565b9050919050565b61163481611619565b811461163f57600080fd5b50565b6000813590506116518161162b565b92915050565b6000806040838503121561166e5761166d61141f565b5b600061167c85828601611534565b925050602061168d85828601611642565b9150509250929050565b6000602082840312156116ad576116ac61141f565b5b60006116bb84828501611642565b91505092915050565b6116cd81611619565b82525050565b60006020820190506116e860008301846116c4565b92915050565b600060408201905061170360008301856114e9565b61171060208301846116c4565b9392505050565b600082825260208201905092915050565b7f4f6e6c79206d65726368616e74732063616e2063616c6c20746869732066756e60008201527f6374696f6e000000000000000000000000000000000000000000000000000000602082015250565b6000611784602583611717565b915061178f82611728565b604082019050919050565b600060208201905081810360008301526117b381611777565b9050919050565b7f416d6f756e74206d7573742062652067726561746572207468616e20302e0000600082015250565b60006117f0601e83611717565b91506117fb826117ba565b602082019050919050565b6000602082019050818103600083015261181f816117e3565b9050919050565b7f496e73756666696369656e742062616c616e63652e0000000000000000000000600082015250565b600061185c601583611717565b915061186782611826565b602082019050919050565b6000602082019050818103600083015261188b8161184f565b9050919050565b60006040820190506118a760008301856116c4565b6118b460208301846114e9565b9392505050565b6118c4816114a9565b81146118cf57600080fd5b50565b6000815190506118e1816118bb565b92915050565b6000602082840312156118fd576118fc61141f565b5b600061190b848285016118d2565b91505092915050565b7f55534454207472616e73666572206661696c6564000000000000000000000000600082015250565b600061194a601483611717565b915061195582611914565b602082019050919050565b600060208201905081810360008301526119798161193d565b9050919050565b7f416363657373436f6e74726f6c3a2063616e206f6e6c792072656e6f756e636560008201527f20726f6c657320666f722073656c660000000000000000000000000000000000602082015250565b60006119dc602f83611717565b91506119e782611980565b604082019050919050565b60006020820190508181036000830152611a0b816119cf565b9050919050565b60008160601b9050919050565b6000611a2a82611a12565b9050919050565b6000611a3c82611a1f565b9050919050565b611a54611a4f82611619565b611a31565b82525050565b6000819050919050565b611a75611a70826114df565b611a5a565b82525050565b6000611a878285611a43565b601482019150611a978284611a64565b6020820191508190509392505050565b7f496e76616c6964207061796d656e74206c696e6b2e0000000000000000000000600082015250565b6000611add601583611717565b9150611ae882611aa7565b602082019050919050565b60006020820190508181036000830152611b0c81611ad0565b9050919050565b6000606082019050611b2860008301866116c4565b611b3560208301856116c4565b611b4260408301846114e9565b949350505050565b7f4e487b7100000000000000000000000000000000000000000000000000000000600052601160045260246000fd5b6000611b84826114df565b9150611b8f836114df565b9250828203905081811115611ba757611ba6611b4a565b5b92915050565b6000611bb8826114df565b9150611bc3836114df565b9250828201905080821115611bdb57611bda611b4a565b5b92915050565b600081905092915050565b7f416363657373436f6e74726f6c3a206163636f756e7420000000000000000000600082015250565b6000611c22601783611be1565b9150611c2d82611bec565b601782019050919050565b600081519050919050565b60005b83811015611c61578082015181840152602081019050611c46565b60008484015250505050565b6000611c7882611c38565b611c828185611be1565b9350611c92818560208601611c43565b80840191505092915050565b7f206973206d697373696e6720726f6c6520000000000000000000000000000000600082015250565b6000611cd4601183611be1565b9150611cdf82611c9e565b601182019050919050565b6000611cf582611c15565b9150611d018285611c6d565b9150611d0c82611cc7565b9150611d188284611c6d565b91508190509392505050565b6000601f19601f8301169050919050565b6000611d4082611c38565b611d4a8185611717565b9350611d5a818560208601611c43565b611d6381611d24565b840191505092915050565b60006020820190508181036000830152611d888184611d35565b905092915050565b6000611d9b826114df565b9150611da6836114df565b9250828202611db4816114df565b91508282048414831517611dcb57611dca611b4a565b5b5092915050565b7f4e487b7100000000000000000000000000000000000000000000000000000000600052604160045260246000fd5b7f4e487b7100000000000000000000000000000000000000000000000000000000600052603260045260246000fd5b6000611e3b826114df565b915060008203611e4e57611e4d611b4a565b5b600182039050919050565b7f537472696e67733a20686578206c656e67746820696e73756666696369656e74600082015250565b6000611e8f602083611717565b9150611e9a82611e59565b602082019050919050565b60006020820190508181036000830152611ebe81611e82565b905091905056fea264697066735822122075738ca5cd10a3bddef0b269417c8e8acf6762705b0e1cf130ed317dcb9222b664736f6c63430008130033",
  "linkReferences": {},
  "deployedLinkReferences": {}
}