{
  "_format": "hh-sol-artifact-1",
  "contractName": "Payblauq_Merchant",
  "sourceName": "contracts/Web3PaymentGateway.sol",
  "abi": [
    {
      "inputs": [
        {
          "internalType": "address",
          "name": "_usdtAddress",
          "type": "address"
        }
      ],
      "stateMutability": "nonpayable",
      "type": "constructor"
    },
    {
      "anonymous": false,
      "inputs": [
        {
          "indexed": true,
          "internalType": "address",
          "name": "merchantAddress",
          "type": "address"
        },
        {
          "indexed": false,
          "internalType": "uint256",
          "name": "time",
          "type": "uint256"
        }
      ],
      "name": "MerchantAdded",
      "type": "event"
    },
    {
      "anonymous": false,
      "inputs": [
        {
          "indexed": true,
          "internalType": "address",
          "name": "merchantAddress",
          "type": "address"
        },
        {
          "indexed": false,
          "internalType": "uint256",
          "name": "time",
          "type": "uint256"
        }
      ],
      "name": "MerchantRemoved",
      "type": "event"
    },
    {
      "anonymous": false,
      "inputs": [
        {
          "indexed": true,
          "internalType": "address",
          "name": "previousOwner",
          "type": "address"
        },
        {
          "indexed": true,
          "internalType": "address",
          "name": "newOwner",
          "type": "address"
        }
      ],
      "name": "OwnershipTransferred",
      "type": "event"
    },
    {
      "anonymous": false,
      "inputs": [
        {
          "indexed": true,
          "internalType": "bytes32",
          "name": "linkId",
          "type": "bytes32"
        },
        {
          "indexed": true,
          "internalType": "address",
          "name": "merchant",
          "type": "address"
        },
        {
          "indexed": false,
          "internalType": "uint256",
          "name": "amountInUSDT",
          "type": "uint256"
        }
      ],
      "name": "PaymentLinkGenerated",
      "type": "event"
    },
    {
      "anonymous": false,
      "inputs": [
        {
          "indexed": true,
          "internalType": "address",
          "name": "from",
          "type": "address"
        },
        {
          "indexed": false,
          "internalType": "uint256",
          "name": "amountInUSDT",
          "type": "uint256"
        }
      ],
      "name": "PaymentReceived",
      "type": "event"
    },
    {
      "inputs": [
        {
          "internalType": "address",
          "name": "merchantAddress",
          "type": "address"
        }
      ],
      "name": "addMerchant",
      "outputs": [],
      "stateMutability": "nonpayable",
      "type": "function"
    },
    {
      "inputs": [
        {
          "internalType": "uint256",
          "name": "amountInUsdt",
          "type": "uint256"
        }
      ],
      "name": "generatePaymentLink",
      "outputs": [
        {
          "internalType": "bytes32",
          "name": "",
          "type": "bytes32"
        }
      ],
      "stateMutability": "nonpayable",
      "type": "function"
    },
    {
      "inputs": [
        {
          "internalType": "address",
          "name": "",
          "type": "address"
        }
      ],
      "name": "merchant",
      "outputs": [
        {
          "internalType": "bool",
          "name": "",
          "type": "bool"
        }
      ],
      "stateMutability": "view",
      "type": "function"
    },
    {
      "inputs": [],
      "name": "owner",
      "outputs": [
        {
          "internalType": "address",
          "name": "",
          "type": "address"
        }
      ],
      "stateMutability": "view",
      "type": "function"
    },
    {
      "inputs": [
        {
          "internalType": "bytes32",
          "name": "linkId",
          "type": "bytes32"
        }
      ],
      "name": "payWithLink",
      "outputs": [],
      "stateMutability": "nonpayable",
      "type": "function"
    },
    {
      "inputs": [
        {
          "internalType": "bytes32",
          "name": "",
          "type": "bytes32"
        }
      ],
      "name": "paymentDetails",
      "outputs": [
        {
          "internalType": "uint256",
          "name": "amount",
          "type": "uint256"
        },
        {
          "internalType": "address",
          "name": "merchantAddress",
          "type": "address"
        }
      ],
      "stateMutability": "view",
      "type": "function"
    },
    {
      "inputs": [
        {
          "internalType": "address",
          "name": "merchantAddress",
          "type": "address"
        }
      ],
      "name": "removeMerchant",
      "outputs": [],
      "stateMutability": "nonpayable",
      "type": "function"
    },
    {
      "inputs": [],
      "name": "renounceOwnership",
      "outputs": [],
      "stateMutability": "nonpayable",
      "type": "function"
    },
    {
      "inputs": [],
      "name": "totalReceived",
      "outputs": [
        {
          "internalType": "uint256",
          "name": "",
          "type": "uint256"
        }
      ],
      "stateMutability": "view",
      "type": "function"
    },
    {
      "inputs": [
        {
          "internalType": "address",
          "name": "newOwner",
          "type": "address"
        }
      ],
      "name": "transferOwnership",
      "outputs": [],
      "stateMutability": "nonpayable",
      "type": "function"
    },
    {
      "inputs": [],
      "name": "usdtAddress",
      "outputs": [
        {
          "internalType": "address",
          "name": "",
          "type": "address"
        }
      ],
      "stateMutability": "view",
      "type": "function"
    },
    {
      "inputs": [
        {
          "internalType": "address",
          "name": "",
          "type": "address"
        }
      ],
      "name": "usdtBalances",
      "outputs": [
        {
          "internalType": "uint256",
          "name": "",
          "type": "uint256"
        }
      ],
      "stateMutability": "view",
      "type": "function"
    }
  ],
  "bytecode": "0x60806040523480156200001157600080fd5b50604051620014a8380380620014a88339818101604052810190620000379190620001df565b60016000819055506200005f62000053620000a760201b60201c565b620000af60201b60201c565b80600260006101000a81548173ffffffffffffffffffffffffffffffffffffffff021916908373ffffffffffffffffffffffffffffffffffffffff1602179055505062000211565b600033905090565b6000600160009054906101000a900473ffffffffffffffffffffffffffffffffffffffff16905081600160006101000a81548173ffffffffffffffffffffffffffffffffffffffff021916908373ffffffffffffffffffffffffffffffffffffffff1602179055508173ffffffffffffffffffffffffffffffffffffffff168173ffffffffffffffffffffffffffffffffffffffff167f8be0079c531659141344cd1fd0a4f28419497f9722a3daafe3b4186f6b6457e060405160405180910390a35050565b600080fd5b600073ffffffffffffffffffffffffffffffffffffffff82169050919050565b6000620001a7826200017a565b9050919050565b620001b9816200019a565b8114620001c557600080fd5b50565b600081519050620001d981620001ae565b92915050565b600060208284031215620001f857620001f762000175565b5b60006200020884828501620001c8565b91505092915050565b61128780620002216000396000f3fe608060405234801561001057600080fd5b50600436106100b45760003560e01c80639ab4a445116100715780639ab4a4451461018d578063a3c2c462146101ab578063bf76c0ef146101c9578063cfbacaa2146101e5578063f2fde38b14610216578063f53546ed14610232576100b4565b8063133adab6146100b9578063215c9417146100d5578063582489cb146101055780636968d71414610135578063715018a6146101655780638da5cb5b1461016f575b600080fd5b6100d360048036038101906100ce9190610bce565b61024e565b005b6100ef60048036038101906100ea9190610bce565b6102ff565b6040516100fc9190610c16565b60405180910390f35b61011f600480360381019061011a9190610bce565b61031f565b60405161012c9190610c4a565b60405180910390f35b61014f600480360381019061014a9190610c91565b610337565b60405161015c9190610cd7565b60405180910390f35b61016d61052c565b005b610177610540565b6040516101849190610d01565b60405180910390f35b61019561056a565b6040516101a29190610d01565b60405180910390f35b6101b3610590565b6040516101c09190610c4a565b60405180910390f35b6101e360048036038101906101de9190610bce565b6105d7565b005b6101ff60048036038101906101fa9190610d48565b610680565b60405161020d929190610d75565b60405180910390f35b610230600480360381019061022b9190610bce565b6106c4565b005b61024c60048036038101906102479190610d48565b610747565b005b6102566109c6565b6000600360008373ffffffffffffffffffffffffffffffffffffffff1673ffffffffffffffffffffffffffffffffffffffff16815260200190815260200160002060006101000a81548160ff0219169083151502179055508073ffffffffffffffffffffffffffffffffffffffff167f021387214cc19adc927ffc55485d0f6a84fd87e67b21c431c7ed43a1f4da398f426040516102f49190610c4a565b60405180910390a250565b60036020528060005260406000206000915054906101000a900460ff1681565b60046020528060005260406000206000915090505481565b600060011515600360003373ffffffffffffffffffffffffffffffffffffffff1673ffffffffffffffffffffffffffffffffffffffff16815260200190815260200160002060009054906101000a900460ff161515146103cc576040517f08c379a00000000000000000000000000000000000000000000000000000000081526004016103c390610dfb565b60405180910390fd5b6000821161040f576040517f08c379a000000000000000000000000000000000000000000000000000000000815260040161040690610e67565b60405180910390fd5b600060405180604001604052808481526020013373ffffffffffffffffffffffffffffffffffffffff16815250905060003384604051602001610453929190610ef0565b60405160208183030381529060405280519060200120905081600560008381526020019081526020016000206000820151816000015560208201518160010160006101000a81548173ffffffffffffffffffffffffffffffffffffffff021916908373ffffffffffffffffffffffffffffffffffffffff1602179055509050503373ffffffffffffffffffffffffffffffffffffffff16817f36f0a2c2e5179ae5ab1ba33a22a89adb9069cdad08d3244d2cd6535ec853d9a88660405161051a9190610c4a565b60405180910390a38092505050919050565b6105346109c6565b61053e6000610a44565b565b6000600160009054906101000a900473ffffffffffffffffffffffffffffffffffffffff16905090565b600260009054906101000a900473ffffffffffffffffffffffffffffffffffffffff1681565b6000600460003373ffffffffffffffffffffffffffffffffffffffff1673ffffffffffffffffffffffffffffffffffffffff16815260200190815260200160002054905090565b6001600360008373ffffffffffffffffffffffffffffffffffffffff1673ffffffffffffffffffffffffffffffffffffffff16815260200190815260200160002060006101000a81548160ff0219169083151502179055508073ffffffffffffffffffffffffffffffffffffffff167fdcd9b74e47ad7a2b13791ca55a80544333071f0ee9d577fcd2cc70aa6c93daa0426040516106759190610c4a565b60405180910390a250565b60056020528060005260406000206000915090508060000154908060010160009054906101000a900473ffffffffffffffffffffffffffffffffffffffff16905082565b6106cc6109c6565b600073ffffffffffffffffffffffffffffffffffffffff168173ffffffffffffffffffffffffffffffffffffffff160361073b576040517f08c379a000000000000000000000000000000000000000000000000000000000815260040161073290610f8e565b60405180910390fd5b61074481610a44565b50565b61074f610b0a565b60006005600083815260200190815260200160002060000154116107a8576040517f08c379a000000000000000000000000000000000000000000000000000000000815260040161079f90610ffa565b60405180910390fd5b6000600560008381526020019081526020016000206000015490506000600260009054906101000a900473ffffffffffffffffffffffffffffffffffffffff1690508073ffffffffffffffffffffffffffffffffffffffff166323b872dd336005600087815260200190815260200160002060010160009054906101000a900473ffffffffffffffffffffffffffffffffffffffff16856040518463ffffffff1660e01b815260040161085d9392919061101a565b6020604051808303816000875af115801561087c573d6000803e3d6000fd5b505050506040513d601f19601f820116820180604052508101906108a0919061107d565b6108df576040517f08c379a00000000000000000000000000000000000000000000000000000000081526004016108d6906110f6565b60405180910390fd5b81600460006005600087815260200190815260200160002060010160009054906101000a900473ffffffffffffffffffffffffffffffffffffffff1673ffffffffffffffffffffffffffffffffffffffff1673ffffffffffffffffffffffffffffffffffffffff16815260200190815260200160002060008282546109649190611145565b925050819055503373ffffffffffffffffffffffffffffffffffffffff167f6ef95f06320e7a25a04a175ca677b7052bdd97131872c2192525a629f51be770836040516109b19190610c4a565b60405180910390a250506109c3610b59565b50565b6109ce610b63565b73ffffffffffffffffffffffffffffffffffffffff166109ec610540565b73ffffffffffffffffffffffffffffffffffffffff1614610a42576040517f08c379a0000000000000000000000000000000000000000000000000000000008152600401610a39906111c5565b60405180910390fd5b565b6000600160009054906101000a900473ffffffffffffffffffffffffffffffffffffffff16905081600160006101000a81548173ffffffffffffffffffffffffffffffffffffffff021916908373ffffffffffffffffffffffffffffffffffffffff1602179055508173ffffffffffffffffffffffffffffffffffffffff168173ffffffffffffffffffffffffffffffffffffffff167f8be0079c531659141344cd1fd0a4f28419497f9722a3daafe3b4186f6b6457e060405160405180910390a35050565b600260005403610b4f576040517f08c379a0000000000000000000000000000000000000000000000000000000008152600401610b4690611231565b60405180910390fd5b6002600081905550565b6001600081905550565b600033905090565b600080fd5b600073ffffffffffffffffffffffffffffffffffffffff82169050919050565b6000610b9b82610b70565b9050919050565b610bab81610b90565b8114610bb657600080fd5b50565b600081359050610bc881610ba2565b92915050565b600060208284031215610be457610be3610b6b565b5b6000610bf284828501610bb9565b91505092915050565b60008115159050919050565b610c1081610bfb565b82525050565b6000602082019050610c2b6000830184610c07565b92915050565b6000819050919050565b610c4481610c31565b82525050565b6000602082019050610c5f6000830184610c3b565b92915050565b610c6e81610c31565b8114610c7957600080fd5b50565b600081359050610c8b81610c65565b92915050565b600060208284031215610ca757610ca6610b6b565b5b6000610cb584828501610c7c565b91505092915050565b6000819050919050565b610cd181610cbe565b82525050565b6000602082019050610cec6000830184610cc8565b92915050565b610cfb81610b90565b82525050565b6000602082019050610d166000830184610cf2565b92915050565b610d2581610cbe565b8114610d3057600080fd5b50565b600081359050610d4281610d1c565b92915050565b600060208284031215610d5e57610d5d610b6b565b5b6000610d6c84828501610d33565b91505092915050565b6000604082019050610d8a6000830185610c3b565b610d976020830184610cf2565b9392505050565b600082825260208201905092915050565b7f43616c6c6572206973206e6f742061206d65726368616e740000000000000000600082015250565b6000610de5601883610d9e565b9150610df082610daf565b602082019050919050565b60006020820190508181036000830152610e1481610dd8565b9050919050565b7f416d6f756e74206d7573742062652067726561746572207468616e20302e0000600082015250565b6000610e51601e83610d9e565b9150610e5c82610e1b565b602082019050919050565b60006020820190508181036000830152610e8081610e44565b9050919050565b60008160601b9050919050565b6000610e9f82610e87565b9050919050565b6000610eb182610e94565b9050919050565b610ec9610ec482610b90565b610ea6565b82525050565b6000819050919050565b610eea610ee582610c31565b610ecf565b82525050565b6000610efc8285610eb8565b601482019150610f0c8284610ed9565b6020820191508190509392505050565b7f4f776e61626c653a206e6577206f776e657220697320746865207a65726f206160008201527f6464726573730000000000000000000000000000000000000000000000000000602082015250565b6000610f78602683610d9e565b9150610f8382610f1c565b604082019050919050565b60006020820190508181036000830152610fa781610f6b565b9050919050565b7f496e76616c6964207061796d656e74206c696e6b2e0000000000000000000000600082015250565b6000610fe4601583610d9e565b9150610fef82610fae565b602082019050919050565b6000602082019050818103600083015261101381610fd7565b9050919050565b600060608201905061102f6000830186610cf2565b61103c6020830185610cf2565b6110496040830184610c3b565b949350505050565b61105a81610bfb565b811461106557600080fd5b50565b60008151905061107781611051565b92915050565b60006020828403121561109357611092610b6b565b5b60006110a184828501611068565b91505092915050565b7f55534454207472616e73666572206661696c6564000000000000000000000000600082015250565b60006110e0601483610d9e565b91506110eb826110aa565b602082019050919050565b6000602082019050818103600083015261110f816110d3565b9050919050565b7f4e487b7100000000000000000000000000000000000000000000000000000000600052601160045260246000fd5b600061115082610c31565b915061115b83610c31565b925082820190508082111561117357611172611116565b5b92915050565b7f4f776e61626c653a2063616c6c6572206973206e6f7420746865206f776e6572600082015250565b60006111af602083610d9e565b91506111ba82611179565b602082019050919050565b600060208201905081810360008301526111de816111a2565b9050919050565b7f5265656e7472616e637947756172643a207265656e7472616e742063616c6c00600082015250565b600061121b601f83610d9e565b9150611226826111e5565b602082019050919050565b6000602082019050818103600083015261124a8161120e565b905091905056fea2646970667358221220619a97403b2f93c58637c408b3e4b15facc0fd786289ce477651a94d91c8a49664736f6c63430008130033",
  "linkReferences": {},
  "deployedLinkReferences": {}
}