{
  "_format": "hh-sol-artifact-1",
  "contractName": "Payblauq_Merchant",
  "sourceName": "contracts/Web3PaymentGateway.sol",
  "abi": [
    {
      "inputs": [
        {
          "internalType": "address",
          "name": "_usdtAddress",
          "type": "address"
        }
      ],
      "stateMutability": "nonpayable",
      "type": "constructor"
    },
    {
      "anonymous": false,
      "inputs": [
        {
          "indexed": true,
          "internalType": "address",
          "name": "merchantAddress",
          "type": "address"
        },
        {
          "indexed": false,
          "internalType": "uint256",
          "name": "time",
          "type": "uint256"
        }
      ],
      "name": "MerchantAdded",
      "type": "event"
    },
    {
      "anonymous": false,
      "inputs": [
        {
          "indexed": true,
          "internalType": "address",
          "name": "merchantAddress",
          "type": "address"
        },
        {
          "indexed": false,
          "internalType": "uint256",
          "name": "time",
          "type": "uint256"
        }
      ],
      "name": "MerchantRemoved",
      "type": "event"
    },
    {
      "anonymous": false,
      "inputs": [
        {
          "indexed": true,
          "internalType": "address",
          "name": "previousOwner",
          "type": "address"
        },
        {
          "indexed": true,
          "internalType": "address",
          "name": "newOwner",
          "type": "address"
        }
      ],
      "name": "OwnershipTransferred",
      "type": "event"
    },
    {
      "anonymous": false,
      "inputs": [
        {
          "indexed": true,
          "internalType": "bytes32",
          "name": "linkId",
          "type": "bytes32"
        },
        {
          "indexed": true,
          "internalType": "address",
          "name": "merchant",
          "type": "address"
        },
        {
          "indexed": false,
          "internalType": "uint256",
          "name": "amountInUSDT",
          "type": "uint256"
        },
        {
          "indexed": false,
          "internalType": "uint256",
          "name": "linkGeneratingTime",
          "type": "uint256"
        }
      ],
      "name": "PaymentLinkGenerated",
      "type": "event"
    },
    {
      "anonymous": false,
      "inputs": [
        {
          "indexed": true,
          "internalType": "address",
          "name": "from",
          "type": "address"
        },
        {
          "indexed": false,
          "internalType": "uint256",
          "name": "amountInUSDT",
          "type": "uint256"
        }
      ],
      "name": "PaymentReceived",
      "type": "event"
    },
    {
      "inputs": [
        {
          "internalType": "address",
          "name": "merchantAddress",
          "type": "address"
        }
      ],
      "name": "addMerchant",
      "outputs": [],
      "stateMutability": "nonpayable",
      "type": "function"
    },
    {
      "inputs": [
        {
          "internalType": "uint256",
          "name": "amountInUsdt",
          "type": "uint256"
        }
      ],
      "name": "generatePaymentLink",
      "outputs": [
        {
          "internalType": "bytes32",
          "name": "",
          "type": "bytes32"
        }
      ],
      "stateMutability": "nonpayable",
      "type": "function"
    },
    {
      "inputs": [
        {
          "internalType": "address",
          "name": "",
          "type": "address"
        }
      ],
      "name": "merchant",
      "outputs": [
        {
          "internalType": "bool",
          "name": "",
          "type": "bool"
        }
      ],
      "stateMutability": "view",
      "type": "function"
    },
    {
      "inputs": [],
      "name": "owner",
      "outputs": [
        {
          "internalType": "address",
          "name": "",
          "type": "address"
        }
      ],
      "stateMutability": "view",
      "type": "function"
    },
    {
      "inputs": [
        {
          "internalType": "bytes32",
          "name": "linkId",
          "type": "bytes32"
        }
      ],
      "name": "payWithLink",
      "outputs": [],
      "stateMutability": "nonpayable",
      "type": "function"
    },
    {
      "inputs": [
        {
          "internalType": "bytes32",
          "name": "",
          "type": "bytes32"
        }
      ],
      "name": "paymentDetails",
      "outputs": [
        {
          "internalType": "uint256",
          "name": "amount",
          "type": "uint256"
        },
        {
          "internalType": "address",
          "name": "merchantAddress",
          "type": "address"
        },
        {
          "internalType": "uint256",
          "name": "linkGeneratingTime",
          "type": "uint256"
        }
      ],
      "stateMutability": "view",
      "type": "function"
    },
    {
      "inputs": [
        {
          "internalType": "address",
          "name": "merchantAddress",
          "type": "address"
        }
      ],
      "name": "removeMerchant",
      "outputs": [],
      "stateMutability": "nonpayable",
      "type": "function"
    },
    {
      "inputs": [],
      "name": "renounceOwnership",
      "outputs": [],
      "stateMutability": "nonpayable",
      "type": "function"
    },
    {
      "inputs": [
        {
          "internalType": "address",
          "name": "",
          "type": "address"
        }
      ],
      "name": "totalAmountMerchantTransaction",
      "outputs": [
        {
          "internalType": "uint256",
          "name": "",
          "type": "uint256"
        }
      ],
      "stateMutability": "view",
      "type": "function"
    },
    {
      "inputs": [
        {
          "internalType": "address",
          "name": "",
          "type": "address"
        }
      ],
      "name": "totalMerchantTransaction",
      "outputs": [
        {
          "internalType": "uint256",
          "name": "",
          "type": "uint256"
        }
      ],
      "stateMutability": "view",
      "type": "function"
    },
    {
      "inputs": [],
      "name": "totalNumMerchant",
      "outputs": [
        {
          "internalType": "uint256",
          "name": "",
          "type": "uint256"
        }
      ],
      "stateMutability": "view",
      "type": "function"
    },
    {
      "inputs": [],
      "name": "totalTransactions",
      "outputs": [
        {
          "internalType": "uint256",
          "name": "",
          "type": "uint256"
        }
      ],
      "stateMutability": "view",
      "type": "function"
    },
    {
      "inputs": [
        {
          "internalType": "address",
          "name": "newOwner",
          "type": "address"
        }
      ],
      "name": "transferOwnership",
      "outputs": [],
      "stateMutability": "nonpayable",
      "type": "function"
    },
    {
      "inputs": [],
      "name": "usdtAddress",
      "outputs": [
        {
          "internalType": "address",
          "name": "",
          "type": "address"
        }
      ],
      "stateMutability": "view",
      "type": "function"
    }
  ],
  "bytecode": "0x60806040523480156200001157600080fd5b506040516200192a3803806200192a8339818101604052810190620000379190620001df565b60016000819055506200005f62000053620000a760201b60201c565b620000af60201b60201c565b80600260006101000a81548173ffffffffffffffffffffffffffffffffffffffff021916908373ffffffffffffffffffffffffffffffffffffffff1602179055505062000211565b600033905090565b6000600160009054906101000a900473ffffffffffffffffffffffffffffffffffffffff16905081600160006101000a81548173ffffffffffffffffffffffffffffffffffffffff021916908373ffffffffffffffffffffffffffffffffffffffff1602179055508173ffffffffffffffffffffffffffffffffffffffff168173ffffffffffffffffffffffffffffffffffffffff167f8be0079c531659141344cd1fd0a4f28419497f9722a3daafe3b4186f6b6457e060405160405180910390a35050565b600080fd5b600073ffffffffffffffffffffffffffffffffffffffff82169050919050565b6000620001a7826200017a565b9050919050565b620001b9816200019a565b8114620001c557600080fd5b50565b600081519050620001d981620001ae565b92915050565b600060208284031215620001f857620001f762000175565b5b60006200020884828501620001c8565b91505092915050565b61170980620002216000396000f3fe608060405234801561001057600080fd5b50600436106100ea5760003560e01c80638da5cb5b1161008c578063bf76c0ef11610066578063bf76c0ef1461024d578063cfbacaa214610269578063f2fde38b1461029b578063f53546ed146102b7576100ea565b80638da5cb5b146101f35780639ab4a44514610211578063b9a600381461022f576100ea565b80636aa6f5bd116100c85780636aa6f5bd1461016b578063715018a61461019b5780637d800b76146101a55780638c6376e7146101d5576100ea565b8063133adab6146100ef578063215c94171461010b5780636968d7141461013b575b600080fd5b61010960048036038101906101049190610e90565b6102d3565b005b61012560048036038101906101209190610e90565b610476565b6040516101329190610ed8565b60405180910390f35b61015560048036038101906101509190610f29565b610496565b6040516101629190610f6f565b60405180910390f35b61018560048036038101906101809190610e90565b61069f565b6040516101929190610f99565b60405180910390f35b6101a36106b7565b005b6101bf60048036038101906101ba9190610e90565b6106cb565b6040516101cc9190610f99565b60405180910390f35b6101dd6106e3565b6040516101ea9190610f99565b60405180910390f35b6101fb6106e9565b6040516102089190610fc3565b60405180910390f35b610219610713565b6040516102269190610fc3565b60405180910390f35b610237610739565b6040516102449190610f99565b60405180910390f35b61026760048036038101906102629190610e90565b61073f565b005b610283600480360381019061027e919061100a565b610895565b60405161029293929190611037565b60405180910390f35b6102b560048036038101906102b09190610e90565b6108df565b005b6102d160048036038101906102cc919061100a565b610962565b005b6102db610c88565b60011515600560008373ffffffffffffffffffffffffffffffffffffffff1673ffffffffffffffffffffffffffffffffffffffff16815260200190815260200160002060009054906101000a900460ff1615151461036e576040517f08c379a0000000000000000000000000000000000000000000000000000000008152600401610365906110cb565b60405180910390fd5b6000600354116103b3576040517f08c379a00000000000000000000000000000000000000000000000000000000081526004016103aa90611137565b60405180910390fd5b6000600560008373ffffffffffffffffffffffffffffffffffffffff1673ffffffffffffffffffffffffffffffffffffffff16815260200190815260200160002060006101000a81548160ff02191690831515021790555060016003600082825461041e9190611186565b925050819055508073ffffffffffffffffffffffffffffffffffffffff167f021387214cc19adc927ffc55485d0f6a84fd87e67b21c431c7ed43a1f4da398f4260405161046b9190610f99565b60405180910390a250565b60056020528060005260406000206000915054906101000a900460ff1681565b600060011515600560003373ffffffffffffffffffffffffffffffffffffffff1673ffffffffffffffffffffffffffffffffffffffff16815260200190815260200160002060009054906101000a900460ff1615151461052b576040517f08c379a000000000000000000000000000000000000000000000000000000000815260040161052290611206565b60405180910390fd5b6000821161056e576040517f08c379a000000000000000000000000000000000000000000000000000000000815260040161056590611272565b60405180910390fd5b600060405180606001604052808481526020013373ffffffffffffffffffffffffffffffffffffffff16815260200142815250905060003384426040516020016105ba939291906112fb565b60405160208183030381529060405280519060200120905081600860008381526020019081526020016000206000820151816000015560208201518160010160006101000a81548173ffffffffffffffffffffffffffffffffffffffff021916908373ffffffffffffffffffffffffffffffffffffffff160217905550604082015181600201559050503373ffffffffffffffffffffffffffffffffffffffff16817f17b0071a82e30bc185b8957e74c7ad2b5e4f75f480fddb454c0fbac9b1036750864260405161068d929190611338565b60405180910390a38092505050919050565b60066020528060005260406000206000915090505481565b6106bf610c88565b6106c96000610d06565b565b60076020528060005260406000206000915090505481565b60035481565b6000600160009054906101000a900473ffffffffffffffffffffffffffffffffffffffff16905090565b600260009054906101000a900473ffffffffffffffffffffffffffffffffffffffff1681565b60045481565b60001515600560008373ffffffffffffffffffffffffffffffffffffffff1673ffffffffffffffffffffffffffffffffffffffff16815260200190815260200160002060009054906101000a900460ff161515146107d2576040517f08c379a00000000000000000000000000000000000000000000000000000000081526004016107c9906113ad565b60405180910390fd5b6001600560008373ffffffffffffffffffffffffffffffffffffffff1673ffffffffffffffffffffffffffffffffffffffff16815260200190815260200160002060006101000a81548160ff02191690831515021790555060016003600082825461083d91906113cd565b925050819055508073ffffffffffffffffffffffffffffffffffffffff167fdcd9b74e47ad7a2b13791ca55a80544333071f0ee9d577fcd2cc70aa6c93daa04260405161088a9190610f99565b60405180910390a250565b60086020528060005260406000206000915090508060000154908060010160009054906101000a900473ffffffffffffffffffffffffffffffffffffffff16908060020154905083565b6108e7610c88565b600073ffffffffffffffffffffffffffffffffffffffff168173ffffffffffffffffffffffffffffffffffffffff1603610956576040517f08c379a000000000000000000000000000000000000000000000000000000000815260040161094d90611473565b60405180910390fd5b61095f81610d06565b50565b61096a610dcc565b60006008600083815260200190815260200160002060000154116109c3576040517f08c379a00000000000000000000000000000000000000000000000000000000081526004016109ba906114df565b60405180910390fd5b6000600860008381526020019081526020016000206000015490506000600260009054906101000a900473ffffffffffffffffffffffffffffffffffffffff1690508073ffffffffffffffffffffffffffffffffffffffff166323b872dd336008600087815260200190815260200160002060010160009054906101000a900473ffffffffffffffffffffffffffffffffffffffff16856040518463ffffffff1660e01b8152600401610a78939291906114ff565b6020604051808303816000875af1158015610a97573d6000803e3d6000fd5b505050506040513d601f19601f82011682018060405250810190610abb9190611562565b610afa576040517f08c379a0000000000000000000000000000000000000000000000000000000008152600401610af1906115db565b60405180910390fd5b81600660006008600087815260200190815260200160002060010160009054906101000a900473ffffffffffffffffffffffffffffffffffffffff1673ffffffffffffffffffffffffffffffffffffffff1673ffffffffffffffffffffffffffffffffffffffff1681526020019081526020016000206000828254610b7f91906113cd565b92505081905550600160046000828254610b9991906113cd565b925050819055506001600760006008600087815260200190815260200160002060010160009054906101000a900473ffffffffffffffffffffffffffffffffffffffff1673ffffffffffffffffffffffffffffffffffffffff1673ffffffffffffffffffffffffffffffffffffffff1681526020019081526020016000206000828254610c2691906113cd565b925050819055503373ffffffffffffffffffffffffffffffffffffffff167f6ef95f06320e7a25a04a175ca677b7052bdd97131872c2192525a629f51be77083604051610c739190610f99565b60405180910390a25050610c85610e1b565b50565b610c90610e25565b73ffffffffffffffffffffffffffffffffffffffff16610cae6106e9565b73ffffffffffffffffffffffffffffffffffffffff1614610d04576040517f08c379a0000000000000000000000000000000000000000000000000000000008152600401610cfb90611647565b60405180910390fd5b565b6000600160009054906101000a900473ffffffffffffffffffffffffffffffffffffffff16905081600160006101000a81548173ffffffffffffffffffffffffffffffffffffffff021916908373ffffffffffffffffffffffffffffffffffffffff1602179055508173ffffffffffffffffffffffffffffffffffffffff168173ffffffffffffffffffffffffffffffffffffffff167f8be0079c531659141344cd1fd0a4f28419497f9722a3daafe3b4186f6b6457e060405160405180910390a35050565b600260005403610e11576040517f08c379a0000000000000000000000000000000000000000000000000000000008152600401610e08906116b3565b60405180910390fd5b6002600081905550565b6001600081905550565b600033905090565b600080fd5b600073ffffffffffffffffffffffffffffffffffffffff82169050919050565b6000610e5d82610e32565b9050919050565b610e6d81610e52565b8114610e7857600080fd5b50565b600081359050610e8a81610e64565b92915050565b600060208284031215610ea657610ea5610e2d565b5b6000610eb484828501610e7b565b91505092915050565b60008115159050919050565b610ed281610ebd565b82525050565b6000602082019050610eed6000830184610ec9565b92915050565b6000819050919050565b610f0681610ef3565b8114610f1157600080fd5b50565b600081359050610f2381610efd565b92915050565b600060208284031215610f3f57610f3e610e2d565b5b6000610f4d84828501610f14565b91505092915050565b6000819050919050565b610f6981610f56565b82525050565b6000602082019050610f846000830184610f60565b92915050565b610f9381610ef3565b82525050565b6000602082019050610fae6000830184610f8a565b92915050565b610fbd81610e52565b82525050565b6000602082019050610fd86000830184610fb4565b92915050565b610fe781610f56565b8114610ff257600080fd5b50565b60008135905061100481610fde565b92915050565b6000602082840312156110205761101f610e2d565b5b600061102e84828501610ff5565b91505092915050565b600060608201905061104c6000830186610f8a565b6110596020830185610fb4565b6110666040830184610f8a565b949350505050565b600082825260208201905092915050565b7f41646472657373206973206e6f742061204d65726368616e7400000000000000600082015250565b60006110b560198361106e565b91506110c08261107f565b602082019050919050565b600060208201905081810360008301526110e4816110a8565b9050919050565b7f4d65726368616e74206e756d6265722069732030000000000000000000000000600082015250565b600061112160148361106e565b915061112c826110eb565b602082019050919050565b6000602082019050818103600083015261115081611114565b9050919050565b7f4e487b7100000000000000000000000000000000000000000000000000000000600052601160045260246000fd5b600061119182610ef3565b915061119c83610ef3565b92508282039050818111156111b4576111b3611157565b5b92915050565b7f43616c6c6572206973206e6f742061206d65726368616e740000000000000000600082015250565b60006111f060188361106e565b91506111fb826111ba565b602082019050919050565b6000602082019050818103600083015261121f816111e3565b9050919050565b7f416d6f756e74206d7573742062652067726561746572207468616e20302e0000600082015250565b600061125c601e8361106e565b915061126782611226565b602082019050919050565b6000602082019050818103600083015261128b8161124f565b9050919050565b60008160601b9050919050565b60006112aa82611292565b9050919050565b60006112bc8261129f565b9050919050565b6112d46112cf82610e52565b6112b1565b82525050565b6000819050919050565b6112f56112f082610ef3565b6112da565b82525050565b600061130782866112c3565b60148201915061131782856112e4565b60208201915061132782846112e4565b602082019150819050949350505050565b600060408201905061134d6000830185610f8a565b61135a6020830184610f8a565b9392505050565b7f4164647265737320697320616c72656164792061204d65726368616e74000000600082015250565b6000611397601d8361106e565b91506113a282611361565b602082019050919050565b600060208201905081810360008301526113c68161138a565b9050919050565b60006113d882610ef3565b91506113e383610ef3565b92508282019050808211156113fb576113fa611157565b5b92915050565b7f4f776e61626c653a206e6577206f776e657220697320746865207a65726f206160008201527f6464726573730000000000000000000000000000000000000000000000000000602082015250565b600061145d60268361106e565b915061146882611401565b604082019050919050565b6000602082019050818103600083015261148c81611450565b9050919050565b7f496e76616c6964207061796d656e74206c696e6b2e0000000000000000000000600082015250565b60006114c960158361106e565b91506114d482611493565b602082019050919050565b600060208201905081810360008301526114f8816114bc565b9050919050565b60006060820190506115146000830186610fb4565b6115216020830185610fb4565b61152e6040830184610f8a565b949350505050565b61153f81610ebd565b811461154a57600080fd5b50565b60008151905061155c81611536565b92915050565b60006020828403121561157857611577610e2d565b5b60006115868482850161154d565b91505092915050565b7f55534454207472616e73666572206661696c6564000000000000000000000000600082015250565b60006115c560148361106e565b91506115d08261158f565b602082019050919050565b600060208201905081810360008301526115f4816115b8565b9050919050565b7f4f776e61626c653a2063616c6c6572206973206e6f7420746865206f776e6572600082015250565b600061163160208361106e565b915061163c826115fb565b602082019050919050565b6000602082019050818103600083015261166081611624565b9050919050565b7f5265656e7472616e637947756172643a207265656e7472616e742063616c6c00600082015250565b600061169d601f8361106e565b91506116a882611667565b602082019050919050565b600060208201905081810360008301526116cc81611690565b905091905056fea2646970667358221220e097067ba87590341313b015b7cf548f0a2924f4dfe337bd3fa7e715a0b7e36d64736f6c63430008130033",
  "linkReferences": {},
  "deployedLinkReferences": {}
}