{
  "_format": "hh-sol-artifact-1",
  "contractName": "Payblauq_Merchant",
  "sourceName": "contracts/Web3PaymentGateway.sol",
  "abi": [
    {
      "inputs": [
        {
          "internalType": "address",
          "name": "_usdtAddress",
          "type": "address"
        }
      ],
      "stateMutability": "nonpayable",
      "type": "constructor"
    },
    {
      "anonymous": false,
      "inputs": [
        {
          "indexed": true,
          "internalType": "address",
          "name": "merchantAddress",
          "type": "address"
        },
        {
          "indexed": false,
          "internalType": "uint256",
          "name": "time",
          "type": "uint256"
        }
      ],
      "name": "MerchantAdded",
      "type": "event"
    },
    {
      "anonymous": false,
      "inputs": [
        {
          "indexed": true,
          "internalType": "address",
          "name": "merchantAddress",
          "type": "address"
        },
        {
          "indexed": false,
          "internalType": "uint256",
          "name": "time",
          "type": "uint256"
        }
      ],
      "name": "MerchantRemoved",
      "type": "event"
    },
    {
      "anonymous": false,
      "inputs": [
        {
          "indexed": true,
          "internalType": "address",
          "name": "previousOwner",
          "type": "address"
        },
        {
          "indexed": true,
          "internalType": "address",
          "name": "newOwner",
          "type": "address"
        }
      ],
      "name": "OwnershipTransferred",
      "type": "event"
    },
    {
      "anonymous": false,
      "inputs": [
        {
          "indexed": true,
          "internalType": "bytes32",
          "name": "linkId",
          "type": "bytes32"
        },
        {
          "indexed": true,
          "internalType": "address",
          "name": "merchant",
          "type": "address"
        },
        {
          "indexed": false,
          "internalType": "uint256",
          "name": "amountInUSDT",
          "type": "uint256"
        },
        {
          "indexed": false,
          "internalType": "uint256",
          "name": "currentPaymentId",
          "type": "uint256"
        }
      ],
      "name": "PaymentLinkGenerated",
      "type": "event"
    },
    {
      "anonymous": false,
      "inputs": [
        {
          "indexed": true,
          "internalType": "address",
          "name": "from",
          "type": "address"
        },
        {
          "indexed": false,
          "internalType": "uint256",
          "name": "amountInUSDT",
          "type": "uint256"
        }
      ],
      "name": "PaymentReceived",
      "type": "event"
    },
    {
      "inputs": [
        {
          "internalType": "address",
          "name": "merchantAddress",
          "type": "address"
        }
      ],
      "name": "addMerchant",
      "outputs": [],
      "stateMutability": "nonpayable",
      "type": "function"
    },
    {
      "inputs": [],
      "name": "currentPaymentId",
      "outputs": [
        {
          "internalType": "uint256",
          "name": "",
          "type": "uint256"
        }
      ],
      "stateMutability": "view",
      "type": "function"
    },
    {
      "inputs": [
        {
          "internalType": "uint256",
          "name": "amountInUsdt",
          "type": "uint256"
        }
      ],
      "name": "generatePaymentLink",
      "outputs": [
        {
          "internalType": "bytes32",
          "name": "",
          "type": "bytes32"
        }
      ],
      "stateMutability": "nonpayable",
      "type": "function"
    },
    {
      "inputs": [
        {
          "internalType": "address",
          "name": "",
          "type": "address"
        }
      ],
      "name": "merchant",
      "outputs": [
        {
          "internalType": "bool",
          "name": "",
          "type": "bool"
        }
      ],
      "stateMutability": "view",
      "type": "function"
    },
    {
      "inputs": [],
      "name": "owner",
      "outputs": [
        {
          "internalType": "address",
          "name": "",
          "type": "address"
        }
      ],
      "stateMutability": "view",
      "type": "function"
    },
    {
      "inputs": [
        {
          "internalType": "bytes32",
          "name": "linkId",
          "type": "bytes32"
        }
      ],
      "name": "payWithLink",
      "outputs": [],
      "stateMutability": "nonpayable",
      "type": "function"
    },
    {
      "inputs": [
        {
          "internalType": "bytes32",
          "name": "",
          "type": "bytes32"
        }
      ],
      "name": "paymentDetails",
      "outputs": [
        {
          "internalType": "uint256",
          "name": "amount",
          "type": "uint256"
        },
        {
          "internalType": "address",
          "name": "merchantAddress",
          "type": "address"
        },
        {
          "internalType": "uint256",
          "name": "paymentId",
          "type": "uint256"
        }
      ],
      "stateMutability": "view",
      "type": "function"
    },
    {
      "inputs": [
        {
          "internalType": "address",
          "name": "merchantAddress",
          "type": "address"
        }
      ],
      "name": "removeMerchant",
      "outputs": [],
      "stateMutability": "nonpayable",
      "type": "function"
    },
    {
      "inputs": [],
      "name": "renounceOwnership",
      "outputs": [],
      "stateMutability": "nonpayable",
      "type": "function"
    },
    {
      "inputs": [
        {
          "internalType": "address",
          "name": "",
          "type": "address"
        }
      ],
      "name": "totalAmountMerchantTransaction",
      "outputs": [
        {
          "internalType": "uint256",
          "name": "",
          "type": "uint256"
        }
      ],
      "stateMutability": "view",
      "type": "function"
    },
    {
      "inputs": [
        {
          "internalType": "address",
          "name": "",
          "type": "address"
        }
      ],
      "name": "totalMerchantTransaction",
      "outputs": [
        {
          "internalType": "uint256",
          "name": "",
          "type": "uint256"
        }
      ],
      "stateMutability": "view",
      "type": "function"
    },
    {
      "inputs": [],
      "name": "totalNumMerchant",
      "outputs": [
        {
          "internalType": "uint256",
          "name": "",
          "type": "uint256"
        }
      ],
      "stateMutability": "view",
      "type": "function"
    },
    {
      "inputs": [],
      "name": "totalTransactions",
      "outputs": [
        {
          "internalType": "uint256",
          "name": "",
          "type": "uint256"
        }
      ],
      "stateMutability": "view",
      "type": "function"
    },
    {
      "inputs": [
        {
          "internalType": "address",
          "name": "newOwner",
          "type": "address"
        }
      ],
      "name": "transferOwnership",
      "outputs": [],
      "stateMutability": "nonpayable",
      "type": "function"
    },
    {
      "inputs": [],
      "name": "usdtAddress",
      "outputs": [
        {
          "internalType": "address",
          "name": "",
          "type": "address"
        }
      ],
      "stateMutability": "view",
      "type": "function"
    }
  ],
  "bytecode": "0x608060405260006004553480156200001657600080fd5b50604051620019c4380380620019c483398181016040528101906200003c9190620001e4565b60016000819055506200006462000058620000ac60201b60201c565b620000b460201b60201c565b80600260006101000a81548173ffffffffffffffffffffffffffffffffffffffff021916908373ffffffffffffffffffffffffffffffffffffffff1602179055505062000216565b600033905090565b6000600160009054906101000a900473ffffffffffffffffffffffffffffffffffffffff16905081600160006101000a81548173ffffffffffffffffffffffffffffffffffffffff021916908373ffffffffffffffffffffffffffffffffffffffff1602179055508173ffffffffffffffffffffffffffffffffffffffff168173ffffffffffffffffffffffffffffffffffffffff167f8be0079c531659141344cd1fd0a4f28419497f9722a3daafe3b4186f6b6457e060405160405180910390a35050565b600080fd5b600073ffffffffffffffffffffffffffffffffffffffff82169050919050565b6000620001ac826200017f565b9050919050565b620001be816200019f565b8114620001ca57600080fd5b50565b600081519050620001de81620001b3565b92915050565b600060208284031215620001fd57620001fc6200017a565b5b60006200020d84828501620001cd565b91505092915050565b61179e80620002266000396000f3fe608060405234801561001057600080fd5b50600436106100f55760003560e01c80638da5cb5b11610097578063bf76c0ef11610066578063bf76c0ef14610276578063cfbacaa214610292578063f2fde38b146102c4578063f53546ed146102e0576100f5565b80638da5cb5b146101fe57806391002e2e1461021c5780639ab4a4451461023a578063b9a6003814610258576100f5565b80636aa6f5bd116100d35780636aa6f5bd14610176578063715018a6146101a65780637d800b76146101b05780638c6376e7146101e0576100f5565b8063133adab6146100fa578063215c9417146101165780636968d71414610146575b600080fd5b610114600480360381019061010f9190610edd565b6102fc565b005b610130600480360381019061012b9190610edd565b61049f565b60405161013d9190610f25565b60405180910390f35b610160600480360381019061015b9190610f76565b6104bf565b60405161016d9190610fbc565b60405180910390f35b610190600480360381019061018b9190610edd565b6106e6565b60405161019d9190610fe6565b60405180910390f35b6101ae6106fe565b005b6101ca60048036038101906101c59190610edd565b610712565b6040516101d79190610fe6565b60405180910390f35b6101e861072a565b6040516101f59190610fe6565b60405180910390f35b610206610730565b6040516102139190611010565b60405180910390f35b61022461075a565b6040516102319190610fe6565b60405180910390f35b610242610760565b60405161024f9190611010565b60405180910390f35b610260610786565b60405161026d9190610fe6565b60405180910390f35b610290600480360381019061028b9190610edd565b61078c565b005b6102ac60048036038101906102a79190611057565b6108e2565b6040516102bb93929190611084565b60405180910390f35b6102de60048036038101906102d99190610edd565b61092c565b005b6102fa60048036038101906102f59190611057565b6109af565b005b610304610cd5565b60011515600660008373ffffffffffffffffffffffffffffffffffffffff1673ffffffffffffffffffffffffffffffffffffffff16815260200190815260200160002060009054906101000a900460ff16151514610397576040517f08c379a000000000000000000000000000000000000000000000000000000000815260040161038e90611118565b60405180910390fd5b6000600354116103dc576040517f08c379a00000000000000000000000000000000000000000000000000000000081526004016103d390611184565b60405180910390fd5b6000600660008373ffffffffffffffffffffffffffffffffffffffff1673ffffffffffffffffffffffffffffffffffffffff16815260200190815260200160002060006101000a81548160ff02191690831515021790555060016003600082825461044791906111d3565b925050819055508073ffffffffffffffffffffffffffffffffffffffff167f021387214cc19adc927ffc55485d0f6a84fd87e67b21c431c7ed43a1f4da398f426040516104949190610fe6565b60405180910390a250565b60066020528060005260406000206000915054906101000a900460ff1681565b600060011515600660003373ffffffffffffffffffffffffffffffffffffffff1673ffffffffffffffffffffffffffffffffffffffff16815260200190815260200160002060009054906101000a900460ff16151514610554576040517f08c379a000000000000000000000000000000000000000000000000000000000815260040161054b90611253565b60405180910390fd5b60008211610597576040517f08c379a000000000000000000000000000000000000000000000000000000000815260040161058e906112bf565b60405180910390fd5b600460008154809291906105aa906112df565b9190505550600060405180606001604052808481526020013373ffffffffffffffffffffffffffffffffffffffff1681526020016004548152509050600033846004546040516020016105ff93929190611390565b60405160208183030381529060405280519060200120905081600960008381526020019081526020016000206000820151816000015560208201518160010160006101000a81548173ffffffffffffffffffffffffffffffffffffffff021916908373ffffffffffffffffffffffffffffffffffffffff160217905550604082015181600201559050503373ffffffffffffffffffffffffffffffffffffffff16817f17b0071a82e30bc185b8957e74c7ad2b5e4f75f480fddb454c0fbac9b1036750866004546040516106d49291906113cd565b60405180910390a38092505050919050565b60076020528060005260406000206000915090505481565b610706610cd5565b6107106000610d53565b565b60086020528060005260406000206000915090505481565b60035481565b6000600160009054906101000a900473ffffffffffffffffffffffffffffffffffffffff16905090565b60045481565b600260009054906101000a900473ffffffffffffffffffffffffffffffffffffffff1681565b60055481565b60001515600660008373ffffffffffffffffffffffffffffffffffffffff1673ffffffffffffffffffffffffffffffffffffffff16815260200190815260200160002060009054906101000a900460ff1615151461081f576040517f08c379a000000000000000000000000000000000000000000000000000000000815260040161081690611442565b60405180910390fd5b6001600660008373ffffffffffffffffffffffffffffffffffffffff1673ffffffffffffffffffffffffffffffffffffffff16815260200190815260200160002060006101000a81548160ff02191690831515021790555060016003600082825461088a9190611462565b925050819055508073ffffffffffffffffffffffffffffffffffffffff167fdcd9b74e47ad7a2b13791ca55a80544333071f0ee9d577fcd2cc70aa6c93daa0426040516108d79190610fe6565b60405180910390a250565b60096020528060005260406000206000915090508060000154908060010160009054906101000a900473ffffffffffffffffffffffffffffffffffffffff16908060020154905083565b610934610cd5565b600073ffffffffffffffffffffffffffffffffffffffff168173ffffffffffffffffffffffffffffffffffffffff16036109a3576040517f08c379a000000000000000000000000000000000000000000000000000000000815260040161099a90611508565b60405180910390fd5b6109ac81610d53565b50565b6109b7610e19565b6000600960008381526020019081526020016000206000015411610a10576040517f08c379a0000000000000000000000000000000000000000000000000000000008152600401610a0790611574565b60405180910390fd5b6000600960008381526020019081526020016000206000015490506000600260009054906101000a900473ffffffffffffffffffffffffffffffffffffffff1690508073ffffffffffffffffffffffffffffffffffffffff166323b872dd336009600087815260200190815260200160002060010160009054906101000a900473ffffffffffffffffffffffffffffffffffffffff16856040518463ffffffff1660e01b8152600401610ac593929190611594565b6020604051808303816000875af1158015610ae4573d6000803e3d6000fd5b505050506040513d601f19601f82011682018060405250810190610b0891906115f7565b610b47576040517f08c379a0000000000000000000000000000000000000000000000000000000008152600401610b3e90611670565b60405180910390fd5b81600760006009600087815260200190815260200160002060010160009054906101000a900473ffffffffffffffffffffffffffffffffffffffff1673ffffffffffffffffffffffffffffffffffffffff1673ffffffffffffffffffffffffffffffffffffffff1681526020019081526020016000206000828254610bcc9190611462565b92505081905550600160056000828254610be69190611462565b925050819055506001600860006009600087815260200190815260200160002060010160009054906101000a900473ffffffffffffffffffffffffffffffffffffffff1673ffffffffffffffffffffffffffffffffffffffff1673ffffffffffffffffffffffffffffffffffffffff1681526020019081526020016000206000828254610c739190611462565b925050819055503373ffffffffffffffffffffffffffffffffffffffff167f6ef95f06320e7a25a04a175ca677b7052bdd97131872c2192525a629f51be77083604051610cc09190610fe6565b60405180910390a25050610cd2610e68565b50565b610cdd610e72565b73ffffffffffffffffffffffffffffffffffffffff16610cfb610730565b73ffffffffffffffffffffffffffffffffffffffff1614610d51576040517f08c379a0000000000000000000000000000000000000000000000000000000008152600401610d48906116dc565b60405180910390fd5b565b6000600160009054906101000a900473ffffffffffffffffffffffffffffffffffffffff16905081600160006101000a81548173ffffffffffffffffffffffffffffffffffffffff021916908373ffffffffffffffffffffffffffffffffffffffff1602179055508173ffffffffffffffffffffffffffffffffffffffff168173ffffffffffffffffffffffffffffffffffffffff167f8be0079c531659141344cd1fd0a4f28419497f9722a3daafe3b4186f6b6457e060405160405180910390a35050565b600260005403610e5e576040517f08c379a0000000000000000000000000000000000000000000000000000000008152600401610e5590611748565b60405180910390fd5b6002600081905550565b6001600081905550565b600033905090565b600080fd5b600073ffffffffffffffffffffffffffffffffffffffff82169050919050565b6000610eaa82610e7f565b9050919050565b610eba81610e9f565b8114610ec557600080fd5b50565b600081359050610ed781610eb1565b92915050565b600060208284031215610ef357610ef2610e7a565b5b6000610f0184828501610ec8565b91505092915050565b60008115159050919050565b610f1f81610f0a565b82525050565b6000602082019050610f3a6000830184610f16565b92915050565b6000819050919050565b610f5381610f40565b8114610f5e57600080fd5b50565b600081359050610f7081610f4a565b92915050565b600060208284031215610f8c57610f8b610e7a565b5b6000610f9a84828501610f61565b91505092915050565b6000819050919050565b610fb681610fa3565b82525050565b6000602082019050610fd16000830184610fad565b92915050565b610fe081610f40565b82525050565b6000602082019050610ffb6000830184610fd7565b92915050565b61100a81610e9f565b82525050565b60006020820190506110256000830184611001565b92915050565b61103481610fa3565b811461103f57600080fd5b50565b6000813590506110518161102b565b92915050565b60006020828403121561106d5761106c610e7a565b5b600061107b84828501611042565b91505092915050565b60006060820190506110996000830186610fd7565b6110a66020830185611001565b6110b36040830184610fd7565b949350505050565b600082825260208201905092915050565b7f41646472657373206973206e6f742061204d65726368616e7400000000000000600082015250565b60006111026019836110bb565b915061110d826110cc565b602082019050919050565b60006020820190508181036000830152611131816110f5565b9050919050565b7f4d65726368616e74206e756d6265722069732030000000000000000000000000600082015250565b600061116e6014836110bb565b915061117982611138565b602082019050919050565b6000602082019050818103600083015261119d81611161565b9050919050565b7f4e487b7100000000000000000000000000000000000000000000000000000000600052601160045260246000fd5b60006111de82610f40565b91506111e983610f40565b9250828203905081811115611201576112006111a4565b5b92915050565b7f43616c6c6572206973206e6f742061206d65726368616e740000000000000000600082015250565b600061123d6018836110bb565b915061124882611207565b602082019050919050565b6000602082019050818103600083015261126c81611230565b9050919050565b7f416d6f756e74206d7573742062652067726561746572207468616e20302e0000600082015250565b60006112a9601e836110bb565b91506112b482611273565b602082019050919050565b600060208201905081810360008301526112d88161129c565b9050919050565b60006112ea82610f40565b91507fffffffffffffffffffffffffffffffffffffffffffffffffffffffffffffffff820361131c5761131b6111a4565b5b600182019050919050565b60008160601b9050919050565b600061133f82611327565b9050919050565b600061135182611334565b9050919050565b61136961136482610e9f565b611346565b82525050565b6000819050919050565b61138a61138582610f40565b61136f565b82525050565b600061139c8286611358565b6014820191506113ac8285611379565b6020820191506113bc8284611379565b602082019150819050949350505050565b60006040820190506113e26000830185610fd7565b6113ef6020830184610fd7565b9392505050565b7f4164647265737320697320616c72656164792061204d65726368616e74000000600082015250565b600061142c601d836110bb565b9150611437826113f6565b602082019050919050565b6000602082019050818103600083015261145b8161141f565b9050919050565b600061146d82610f40565b915061147883610f40565b92508282019050808211156114905761148f6111a4565b5b92915050565b7f4f776e61626c653a206e6577206f776e657220697320746865207a65726f206160008201527f6464726573730000000000000000000000000000000000000000000000000000602082015250565b60006114f26026836110bb565b91506114fd82611496565b604082019050919050565b60006020820190508181036000830152611521816114e5565b9050919050565b7f496e76616c6964207061796d656e74206c696e6b2e0000000000000000000000600082015250565b600061155e6015836110bb565b915061156982611528565b602082019050919050565b6000602082019050818103600083015261158d81611551565b9050919050565b60006060820190506115a96000830186611001565b6115b66020830185611001565b6115c36040830184610fd7565b949350505050565b6115d481610f0a565b81146115df57600080fd5b50565b6000815190506115f1816115cb565b92915050565b60006020828403121561160d5761160c610e7a565b5b600061161b848285016115e2565b91505092915050565b7f55534454207472616e73666572206661696c6564000000000000000000000000600082015250565b600061165a6014836110bb565b915061166582611624565b602082019050919050565b600060208201905081810360008301526116898161164d565b9050919050565b7f4f776e61626c653a2063616c6c6572206973206e6f7420746865206f776e6572600082015250565b60006116c66020836110bb565b91506116d182611690565b602082019050919050565b600060208201905081810360008301526116f5816116b9565b9050919050565b7f5265656e7472616e637947756172643a207265656e7472616e742063616c6c00600082015250565b6000611732601f836110bb565b915061173d826116fc565b602082019050919050565b6000602082019050818103600083015261176181611725565b905091905056fea2646970667358221220bff60e69e5182b80dbddf74cded359de3eb8f19da1830b3c37904ae4b8ef078264736f6c63430008130033",
  "linkReferences": {},
  "deployedLinkReferences": {}
}