{
  "_format": "hh-sol-artifact-1",
  "contractName": "Payblauq_Merchant",
  "sourceName": "contracts/Web3PaymentGateway.sol",
  "abi": [
    {
      "inputs": [
        {
          "internalType": "address",
          "name": "initialOwner",
          "type": "address"
        },
        {
          "internalType": "address",
          "name": "_usdtAddress",
          "type": "address"
        },
        {
          "internalType": "address",
          "name": "_wbtcAddress",
          "type": "address"
        }
      ],
      "stateMutability": "nonpayable",
      "type": "constructor"
    },
    {
      "inputs": [
        {
          "internalType": "address",
          "name": "owner",
          "type": "address"
        }
      ],
      "name": "OwnableInvalidOwner",
      "type": "error"
    },
    {
      "inputs": [
        {
          "internalType": "address",
          "name": "account",
          "type": "address"
        }
      ],
      "name": "OwnableUnauthorizedAccount",
      "type": "error"
    },
    {
      "inputs": [],
      "name": "ReentrancyGuardReentrantCall",
      "type": "error"
    },
    {
      "anonymous": false,
      "inputs": [
        {
          "indexed": false,
          "internalType": "uint256",
          "name": "amountWithdrawn",
          "type": "uint256"
        },
        {
          "indexed": false,
          "internalType": "address",
          "name": "withdrawaAddress",
          "type": "address"
        },
        {
          "indexed": false,
          "internalType": "uint256",
          "name": "time",
          "type": "uint256"
        }
      ],
      "name": "AdminWithdraw",
      "type": "event"
    },
    {
      "anonymous": false,
      "inputs": [
        {
          "indexed": false,
          "internalType": "uint256",
          "name": "currentFees",
          "type": "uint256"
        },
        {
          "indexed": false,
          "internalType": "uint256",
          "name": "timeChanged",
          "type": "uint256"
        }
      ],
      "name": "FeesChanged",
      "type": "event"
    },
    {
      "anonymous": false,
      "inputs": [
        {
          "indexed": true,
          "internalType": "address",
          "name": "merchantAddress",
          "type": "address"
        },
        {
          "indexed": false,
          "internalType": "uint256",
          "name": "time",
          "type": "uint256"
        }
      ],
      "name": "MerchantAdded",
      "type": "event"
    },
    {
      "anonymous": false,
      "inputs": [
        {
          "indexed": true,
          "internalType": "address",
          "name": "merchantAddress",
          "type": "address"
        },
        {
          "indexed": false,
          "internalType": "uint256",
          "name": "time",
          "type": "uint256"
        }
      ],
      "name": "MerchantRemoved",
      "type": "event"
    },
    {
      "anonymous": false,
      "inputs": [
        {
          "indexed": false,
          "internalType": "uint256",
          "name": "amountWithdrawn",
          "type": "uint256"
        },
        {
          "indexed": true,
          "internalType": "address",
          "name": "MerchantAddress",
          "type": "address"
        },
        {
          "indexed": true,
          "internalType": "address",
          "name": "WithdrawalAddress",
          "type": "address"
        },
        {
          "indexed": false,
          "internalType": "enum Payblauq_Merchant.CurrencyType",
          "name": "currency",
          "type": "uint8"
        },
        {
          "indexed": false,
          "internalType": "uint256",
          "name": "time",
          "type": "uint256"
        }
      ],
      "name": "MerchantWithdraw",
      "type": "event"
    },
    {
      "anonymous": false,
      "inputs": [
        {
          "indexed": true,
          "internalType": "address",
          "name": "previousOwner",
          "type": "address"
        },
        {
          "indexed": true,
          "internalType": "address",
          "name": "newOwner",
          "type": "address"
        }
      ],
      "name": "OwnershipTransferred",
      "type": "event"
    },
    {
      "anonymous": false,
      "inputs": [
        {
          "indexed": true,
          "internalType": "bytes32",
          "name": "linkId",
          "type": "bytes32"
        },
        {
          "indexed": true,
          "internalType": "address",
          "name": "merchant",
          "type": "address"
        },
        {
          "indexed": false,
          "internalType": "uint256",
          "name": "amountTokens",
          "type": "uint256"
        },
        {
          "indexed": false,
          "internalType": "uint256",
          "name": "currentPaymentId",
          "type": "uint256"
        },
        {
          "indexed": false,
          "internalType": "enum Payblauq_Merchant.CurrencyType",
          "name": "currency",
          "type": "uint8"
        },
        {
          "indexed": false,
          "internalType": "uint256",
          "name": "transactionTime",
          "type": "uint256"
        }
      ],
      "name": "PaymentLinkGenerated",
      "type": "event"
    },
    {
      "anonymous": false,
      "inputs": [
        {
          "indexed": true,
          "internalType": "address",
          "name": "from",
          "type": "address"
        },
        {
          "indexed": true,
          "internalType": "address",
          "name": "MerchantAddress",
          "type": "address"
        },
        {
          "indexed": false,
          "internalType": "uint256",
          "name": "amount",
          "type": "uint256"
        },
        {
          "indexed": false,
          "internalType": "enum Payblauq_Merchant.CurrencyType",
          "name": "currency",
          "type": "uint8"
        }
      ],
      "name": "PaymentReceived",
      "type": "event"
    },
    {
      "anonymous": false,
      "inputs": [
        {
          "indexed": false,
          "internalType": "string",
          "name": "tokenType",
          "type": "string"
        },
        {
          "indexed": false,
          "internalType": "address",
          "name": "newAddress",
          "type": "address"
        }
      ],
      "name": "TokenAddressUpdated",
      "type": "event"
    },
    {
      "inputs": [
        {
          "internalType": "address",
          "name": "merchantAddress",
          "type": "address"
        }
      ],
      "name": "addMerchant",
      "outputs": [],
      "stateMutability": "nonpayable",
      "type": "function"
    },
    {
      "inputs": [
        {
          "internalType": "address",
          "name": "withdrawalAddress",
          "type": "address"
        },
        {
          "internalType": "uint256",
          "name": "amount",
          "type": "uint256"
        },
        {
          "internalType": "enum Payblauq_Merchant.CurrencyType",
          "name": "currency",
          "type": "uint8"
        }
      ],
      "name": "adminWithdraw",
      "outputs": [],
      "stateMutability": "nonpayable",
      "type": "function"
    },
    {
      "inputs": [
        {
          "internalType": "uint256",
          "name": "percentage",
          "type": "uint256"
        }
      ],
      "name": "changeFees",
      "outputs": [],
      "stateMutability": "nonpayable",
      "type": "function"
    },
    {
      "inputs": [],
      "name": "currentFeesinPercentage",
      "outputs": [
        {
          "internalType": "uint256",
          "name": "",
          "type": "uint256"
        }
      ],
      "stateMutability": "view",
      "type": "function"
    },
    {
      "inputs": [],
      "name": "currentPaymentId",
      "outputs": [
        {
          "internalType": "uint256",
          "name": "",
          "type": "uint256"
        }
      ],
      "stateMutability": "view",
      "type": "function"
    },
    {
      "inputs": [
        {
          "internalType": "uint256",
          "name": "amountTokens",
          "type": "uint256"
        },
        {
          "internalType": "enum Payblauq_Merchant.CurrencyType",
          "name": "currency",
          "type": "uint8"
        }
      ],
      "name": "generatePaymentLink",
      "outputs": [
        {
          "internalType": "bytes32",
          "name": "",
          "type": "bytes32"
        }
      ],
      "stateMutability": "nonpayable",
      "type": "function"
    },
    {
      "inputs": [
        {
          "internalType": "address",
          "name": "",
          "type": "address"
        }
      ],
      "name": "merchant",
      "outputs": [
        {
          "internalType": "bool",
          "name": "",
          "type": "bool"
        }
      ],
      "stateMutability": "view",
      "type": "function"
    },
    {
      "inputs": [
        {
          "internalType": "address",
          "name": "withdrawalAddress",
          "type": "address"
        },
        {
          "internalType": "uint256",
          "name": "amount",
          "type": "uint256"
        },
        {
          "internalType": "enum Payblauq_Merchant.CurrencyType",
          "name": "currency",
          "type": "uint8"
        }
      ],
      "name": "merchantWithdraw",
      "outputs": [],
      "stateMutability": "nonpayable",
      "type": "function"
    },
    {
      "inputs": [],
      "name": "owner",
      "outputs": [
        {
          "internalType": "address",
          "name": "",
          "type": "address"
        }
      ],
      "stateMutability": "view",
      "type": "function"
    },
    {
      "inputs": [
        {
          "internalType": "bytes32",
          "name": "linkId",
          "type": "bytes32"
        }
      ],
      "name": "payWithLink",
      "outputs": [],
      "stateMutability": "payable",
      "type": "function"
    },
    {
      "inputs": [
        {
          "internalType": "bytes32",
          "name": "",
          "type": "bytes32"
        }
      ],
      "name": "paymentDetails",
      "outputs": [
        {
          "internalType": "uint256",
          "name": "amount",
          "type": "uint256"
        },
        {
          "internalType": "address",
          "name": "merchantAddress",
          "type": "address"
        },
        {
          "internalType": "uint256",
          "name": "paymentId",
          "type": "uint256"
        },
        {
          "internalType": "enum Payblauq_Merchant.CurrencyType",
          "name": "currency",
          "type": "uint8"
        },
        {
          "internalType": "uint256",
          "name": "transactionTime",
          "type": "uint256"
        }
      ],
      "stateMutability": "view",
      "type": "function"
    },
    {
      "inputs": [
        {
          "internalType": "address",
          "name": "merchantAddress",
          "type": "address"
        }
      ],
      "name": "removeMerchant",
      "outputs": [],
      "stateMutability": "nonpayable",
      "type": "function"
    },
    {
      "inputs": [],
      "name": "renounceOwnership",
      "outputs": [],
      "stateMutability": "nonpayable",
      "type": "function"
    },
    {
      "inputs": [
        {
          "internalType": "address",
          "name": "",
          "type": "address"
        }
      ],
      "name": "totalAmountETHERTransaction",
      "outputs": [
        {
          "internalType": "uint256",
          "name": "",
          "type": "uint256"
        }
      ],
      "stateMutability": "view",
      "type": "function"
    },
    {
      "inputs": [
        {
          "internalType": "address",
          "name": "",
          "type": "address"
        }
      ],
      "name": "totalAmountUSDTTransaction",
      "outputs": [
        {
          "internalType": "uint256",
          "name": "",
          "type": "uint256"
        }
      ],
      "stateMutability": "view",
      "type": "function"
    },
    {
      "inputs": [
        {
          "internalType": "address",
          "name": "",
          "type": "address"
        }
      ],
      "name": "totalAmountWBTCTransaction",
      "outputs": [
        {
          "internalType": "uint256",
          "name": "",
          "type": "uint256"
        }
      ],
      "stateMutability": "view",
      "type": "function"
    },
    {
      "inputs": [
        {
          "internalType": "address",
          "name": "",
          "type": "address"
        }
      ],
      "name": "totalMerchantTransaction",
      "outputs": [
        {
          "internalType": "uint256",
          "name": "",
          "type": "uint256"
        }
      ],
      "stateMutability": "view",
      "type": "function"
    },
    {
      "inputs": [],
      "name": "totalNumMerchant",
      "outputs": [
        {
          "internalType": "uint256",
          "name": "",
          "type": "uint256"
        }
      ],
      "stateMutability": "view",
      "type": "function"
    },
    {
      "inputs": [],
      "name": "totalTransactions",
      "outputs": [
        {
          "internalType": "uint256",
          "name": "",
          "type": "uint256"
        }
      ],
      "stateMutability": "view",
      "type": "function"
    },
    {
      "inputs": [
        {
          "internalType": "address",
          "name": "newOwner",
          "type": "address"
        }
      ],
      "name": "transferOwnership",
      "outputs": [],
      "stateMutability": "nonpayable",
      "type": "function"
    },
    {
      "inputs": [
        {
          "internalType": "address",
          "name": "newUsdtAddress",
          "type": "address"
        }
      ],
      "name": "updateUsdtAddress",
      "outputs": [],
      "stateMutability": "nonpayable",
      "type": "function"
    },
    {
      "inputs": [
        {
          "internalType": "address",
          "name": "newWbtcAddress",
          "type": "address"
        }
      ],
      "name": "updateWbtcAddress",
      "outputs": [],
      "stateMutability": "nonpayable",
      "type": "function"
    },
    {
      "inputs": [],
      "name": "usdtAddress",
      "outputs": [
        {
          "internalType": "address",
          "name": "",
          "type": "address"
        }
      ],
      "stateMutability": "view",
      "type": "function"
    },
    {
      "inputs": [],
      "name": "wbtcAddress",
      "outputs": [
        {
          "internalType": "address",
          "name": "",
          "type": "address"
        }
      ],
      "stateMutability": "view",
      "type": "function"
    }
  ],
  "bytecode": "0x6080604052600160055560006006553480156200001b57600080fd5b50604051620038b7380380620038b783398181016040528101906200004191906200028c565b826001600081905550600073ffffffffffffffffffffffffffffffffffffffff168173ffffffffffffffffffffffffffffffffffffffff1603620000bf5760006040517f1e4fbdf7000000000000000000000000000000000000000000000000000000008152600401620000b69190620002f9565b60405180910390fd5b620000d0816200015c60201b60201c565b5081600260006101000a81548173ffffffffffffffffffffffffffffffffffffffff021916908373ffffffffffffffffffffffffffffffffffffffff16021790555080600360006101000a81548173ffffffffffffffffffffffffffffffffffffffff021916908373ffffffffffffffffffffffffffffffffffffffff16021790555050505062000316565b6000600160009054906101000a900473ffffffffffffffffffffffffffffffffffffffff16905081600160006101000a81548173ffffffffffffffffffffffffffffffffffffffff021916908373ffffffffffffffffffffffffffffffffffffffff1602179055508173ffffffffffffffffffffffffffffffffffffffff168173ffffffffffffffffffffffffffffffffffffffff167f8be0079c531659141344cd1fd0a4f28419497f9722a3daafe3b4186f6b6457e060405160405180910390a35050565b600080fd5b600073ffffffffffffffffffffffffffffffffffffffff82169050919050565b6000620002548262000227565b9050919050565b620002668162000247565b81146200027257600080fd5b50565b60008151905062000286816200025b565b92915050565b600080600060608486031215620002a857620002a762000222565b5b6000620002b88682870162000275565b9350506020620002cb8682870162000275565b9250506040620002de8682870162000275565b9150509250925092565b620002f38162000247565b82525050565b6000602082019050620003106000830184620002e8565b92915050565b61359180620003266000396000f3fe60806040526004361061014b5760003560e01c80638c6376e7116100b6578063b9a600381161006f578063b9a6003814610490578063bf76c0ef146104bb578063c7396c24146104e4578063cfbacaa214610521578063f2fde38b14610562578063f53546ed1461058b5761014b565b80638c6376e71461037e5780638da5cb5b146103a957806391002e2e146103d45780639ab4a445146103ff578063b07d2e4a1461042a578063b71c2743146104535761014b565b806361a2ac391161010857806361a2ac39146102845780636cda375b146102af578063715018a6146102d857806377e0d850146102ef5780637d800b761461031857806382b351bf146103555761014b565b80630d69460414610150578063133adab614610179578063215c9417146101a25780634c5e3700146101df5780634c84b6991461020a5780634f2b209614610247575b600080fd5b34801561015c57600080fd5b5061017760048036038101906101729190612469565b6105a7565b005b34801561018557600080fd5b506101a0600480360381019061019b9190612469565b610729565b005b3480156101ae57600080fd5b506101c960048036038101906101c49190612469565b6108cc565b6040516101d691906124b1565b60405180910390f35b3480156101eb57600080fd5b506101f46108ec565b60405161020191906124e5565b60405180910390f35b34801561021657600080fd5b50610231600480360381019061022c9190612469565b6108f2565b60405161023e91906124e5565b60405180910390f35b34801561025357600080fd5b5061026e60048036038101906102699190612469565b61090a565b60405161027b91906124e5565b60405180910390f35b34801561029057600080fd5b50610299610922565b6040516102a6919061250f565b60405180910390f35b3480156102bb57600080fd5b506102d660048036038101906102d19190612556565b610948565b005b3480156102e457600080fd5b506102ed610993565b005b3480156102fb57600080fd5b50610316600480360381019061031191906125a8565b6109a7565b005b34801561032457600080fd5b5061033f600480360381019061033a9190612469565b611036565b60405161034c91906124e5565b60405180910390f35b34801561036157600080fd5b5061037c600480360381019061037791906125a8565b61104e565b005b34801561038a57600080fd5b50610393611557565b6040516103a091906124e5565b60405180910390f35b3480156103b557600080fd5b506103be61155d565b6040516103cb919061250f565b60405180910390f35b3480156103e057600080fd5b506103e9611587565b6040516103f691906124e5565b60405180910390f35b34801561040b57600080fd5b5061041461158d565b604051610421919061250f565b60405180910390f35b34801561043657600080fd5b50610451600480360381019061044c9190612469565b6115b3565b005b34801561045f57600080fd5b5061047a600480360381019061047591906125fb565b611735565b6040516104879190612654565b60405180910390f35b34801561049c57600080fd5b506104a56119bb565b6040516104b291906124e5565b60405180910390f35b3480156104c757600080fd5b506104e260048036038101906104dd9190612469565b6119c1565b005b3480156104f057600080fd5b5061050b60048036038101906105069190612469565b611b86565b60405161051891906124e5565b60405180910390f35b34801561052d57600080fd5b506105486004803603810190610543919061269b565b611b9e565b60405161055995949392919061273f565b60405180910390f35b34801561056e57600080fd5b5061058960048036038101906105849190612469565b611c01565b005b6105a560048036038101906105a0919061269b565b611c87565b005b6105af612261565b600073ffffffffffffffffffffffffffffffffffffffff168173ffffffffffffffffffffffffffffffffffffffff160361061e576040517f08c379a000000000000000000000000000000000000000000000000000000000815260040161061590612815565b60405180910390fd5b600260009054906101000a900473ffffffffffffffffffffffffffffffffffffffff1673ffffffffffffffffffffffffffffffffffffffff168173ffffffffffffffffffffffffffffffffffffffff16036106ae576040517f08c379a00000000000000000000000000000000000000000000000000000000081526004016106a5906128a7565b60405180910390fd5b80600260006101000a81548173ffffffffffffffffffffffffffffffffffffffff021916908373ffffffffffffffffffffffffffffffffffffffff1602179055507f26b201b7b496fd4d48a85cb458835d5b6fc4e56242279b5a63b6fbf75f674c5a8160405161071e9190612913565b60405180910390a150565b610731612261565b60011515600860008373ffffffffffffffffffffffffffffffffffffffff1673ffffffffffffffffffffffffffffffffffffffff16815260200190815260200160002060009054906101000a900460ff161515146107c4576040517f08c379a00000000000000000000000000000000000000000000000000000000081526004016107bb9061298d565b60405180910390fd5b600060045411610809576040517f08c379a0000000000000000000000000000000000000000000000000000000008152600401610800906129f9565b60405180910390fd5b6000600860008373ffffffffffffffffffffffffffffffffffffffff1673ffffffffffffffffffffffffffffffffffffffff16815260200190815260200160002060006101000a81548160ff0219169083151502179055506001600460008282546108749190612a48565b925050819055508073ffffffffffffffffffffffffffffffffffffffff167f021387214cc19adc927ffc55485d0f6a84fd87e67b21c431c7ed43a1f4da398f426040516108c191906124e5565b60405180910390a250565b60086020528060005260406000206000915054906101000a900460ff1681565b60055481565b600a6020528060005260406000206000915090505481565b600b6020528060005260406000206000915090505481565b600360009054906101000a900473ffffffffffffffffffffffffffffffffffffffff1681565b610950612261565b806005819055507f64f84976d9c917a44796104a59950fdbd9b3c16a5dd348b546d738301f6bd0688142604051610988929190612a7c565b60405180910390a150565b61099b612261565b6109a560006122e8565b565b60011515600860003373ffffffffffffffffffffffffffffffffffffffff1673ffffffffffffffffffffffffffffffffffffffff16815260200190815260200160002060009054906101000a900460ff16151514610a3a576040517f08c379a0000000000000000000000000000000000000000000000000000000008152600401610a3190612af1565b60405180910390fd5b610a426123ae565b60008211610a85576040517f08c379a0000000000000000000000000000000000000000000000000000000008152600401610a7c90612b83565b60405180910390fd5b60016002811115610a9957610a986126c8565b5b816002811115610aac57610aab6126c8565b5b03610c79576000600260009054906101000a900473ffffffffffffffffffffffffffffffffffffffff1690506000600960003373ffffffffffffffffffffffffffffffffffffffff1673ffffffffffffffffffffffffffffffffffffffff16815260200190815260200160002054905083811015610b5f576040517f08c379a0000000000000000000000000000000000000000000000000000000008152600401610b5690612bef565b60405180910390fd5b8173ffffffffffffffffffffffffffffffffffffffff1663a9059cbb86866040518363ffffffff1660e01b8152600401610b9a929190612c0f565b6020604051808303816000875af1158015610bb9573d6000803e3d6000fd5b505050506040513d601f19601f82011682018060405250810190610bdd9190612c64565b610c1c576040517f08c379a0000000000000000000000000000000000000000000000000000000008152600401610c1390612cdd565b60405180910390fd5b83600960003373ffffffffffffffffffffffffffffffffffffffff1673ffffffffffffffffffffffffffffffffffffffff1681526020019081526020016000206000828254610c6b9190612a48565b925050819055505050610fc0565b600280811115610c8c57610c8b6126c8565b5b816002811115610c9f57610c9e6126c8565b5b03610e6c576000600360009054906101000a900473ffffffffffffffffffffffffffffffffffffffff1690506000600a60003373ffffffffffffffffffffffffffffffffffffffff1673ffffffffffffffffffffffffffffffffffffffff16815260200190815260200160002054905083811015610d52576040517f08c379a0000000000000000000000000000000000000000000000000000000008152600401610d4990612d49565b60405180910390fd5b8173ffffffffffffffffffffffffffffffffffffffff1663a9059cbb86866040518363ffffffff1660e01b8152600401610d8d929190612c0f565b6020604051808303816000875af1158015610dac573d6000803e3d6000fd5b505050506040513d601f19601f82011682018060405250810190610dd09190612c64565b610e0f576040517f08c379a0000000000000000000000000000000000000000000000000000000008152600401610e0690612db5565b60405180910390fd5b83600a60003373ffffffffffffffffffffffffffffffffffffffff1673ffffffffffffffffffffffffffffffffffffffff1681526020019081526020016000206000828254610e5e9190612a48565b925050819055505050610fbf565b60006002811115610e8057610e7f6126c8565b5b816002811115610e9357610e926126c8565b5b03610fbe576000600b60003373ffffffffffffffffffffffffffffffffffffffff1673ffffffffffffffffffffffffffffffffffffffff16815260200190815260200160002054905082811015610f1f576040517f08c379a0000000000000000000000000000000000000000000000000000000008152600401610f1690612e21565b60405180910390fd5b8373ffffffffffffffffffffffffffffffffffffffff166108fc849081150290604051600060405180830381858888f19350505050158015610f65573d6000803e3d6000fd5b5082600b60003373ffffffffffffffffffffffffffffffffffffffff1673ffffffffffffffffffffffffffffffffffffffff1681526020019081526020016000206000828254610fb59190612a48565b92505081905550505b5b5b8273ffffffffffffffffffffffffffffffffffffffff163373ffffffffffffffffffffffffffffffffffffffff167fe28e1530abebe9576079c9d9b6730bc6511911c0ef20e22c0b1078faac4829b284844260405161102193929190612e41565b60405180910390a36110316123f4565b505050565b600c6020528060005260406000206000915090505481565b611056612261565b61105e6123ae565b600082116110a1576040517f08c379a000000000000000000000000000000000000000000000000000000000815260040161109890612b83565b60405180910390fd5b600160028111156110b5576110b46126c8565b5b8160028111156110c8576110c76126c8565b5b03611279576000600260009054906101000a900473ffffffffffffffffffffffffffffffffffffffff16905060008173ffffffffffffffffffffffffffffffffffffffff166370a08231306040518263ffffffff1660e01b815260040161112f919061250f565b602060405180830381865afa15801561114c573d6000803e3d6000fd5b505050506040513d601f19601f820116820180604052508101906111709190612e8d565b9050838110156111b5576040517f08c379a00000000000000000000000000000000000000000000000000000000081526004016111ac90612bef565b60405180910390fd5b8173ffffffffffffffffffffffffffffffffffffffff1663a9059cbb86866040518363ffffffff1660e01b81526004016111f0929190612c0f565b6020604051808303816000875af115801561120f573d6000803e3d6000fd5b505050506040513d601f19601f820116820180604052508101906112339190612c64565b611272576040517f08c379a000000000000000000000000000000000000000000000000000000000815260040161126990612cdd565b60405180910390fd5b505061150f565b60028081111561128c5761128b6126c8565b5b81600281111561129f5761129e6126c8565b5b03611450576000600360009054906101000a900473ffffffffffffffffffffffffffffffffffffffff16905060008173ffffffffffffffffffffffffffffffffffffffff166370a08231306040518263ffffffff1660e01b8152600401611306919061250f565b602060405180830381865afa158015611323573d6000803e3d6000fd5b505050506040513d601f19601f820116820180604052508101906113479190612e8d565b90508381101561138c576040517f08c379a000000000000000000000000000000000000000000000000000000000815260040161138390612d49565b60405180910390fd5b8173ffffffffffffffffffffffffffffffffffffffff1663a9059cbb86866040518363ffffffff1660e01b81526004016113c7929190612c0f565b6020604051808303816000875af11580156113e6573d6000803e3d6000fd5b505050506040513d601f19601f8201168201806040525081019061140a9190612c64565b611449576040517f08c379a000000000000000000000000000000000000000000000000000000000815260040161144090612db5565b60405180910390fd5b505061150e565b60006002811115611464576114636126c8565b5b816002811115611477576114766126c8565b5b0361150d576000479050828110156114c4576040517f08c379a00000000000000000000000000000000000000000000000000000000081526004016114bb90612e21565b60405180910390fd5b8373ffffffffffffffffffffffffffffffffffffffff166108fc849081150290604051600060405180830381858888f1935050505015801561150a573d6000803e3d6000fd5b50505b5b5b7f3283abdb05cff705bd4faab57c532a3d4bfe5c83685e9c69e83d459bb88fb07382844260405161154293929190612eba565b60405180910390a16115526123f4565b505050565b60045481565b6000600160009054906101000a900473ffffffffffffffffffffffffffffffffffffffff16905090565b60065481565b600260009054906101000a900473ffffffffffffffffffffffffffffffffffffffff1681565b6115bb612261565b600073ffffffffffffffffffffffffffffffffffffffff168173ffffffffffffffffffffffffffffffffffffffff160361162a576040517f08c379a000000000000000000000000000000000000000000000000000000000815260040161162190612f63565b60405180910390fd5b600360009054906101000a900473ffffffffffffffffffffffffffffffffffffffff1673ffffffffffffffffffffffffffffffffffffffff168173ffffffffffffffffffffffffffffffffffffffff16036116ba576040517f08c379a00000000000000000000000000000000000000000000000000000000081526004016116b190612ff5565b60405180910390fd5b80600360006101000a81548173ffffffffffffffffffffffffffffffffffffffff021916908373ffffffffffffffffffffffffffffffffffffffff1602179055507f26b201b7b496fd4d48a85cb458835d5b6fc4e56242279b5a63b6fbf75f674c5a8160405161172a9190613061565b60405180910390a150565b600060011515600860003373ffffffffffffffffffffffffffffffffffffffff1673ffffffffffffffffffffffffffffffffffffffff16815260200190815260200160002060009054906101000a900460ff161515146117ca576040517f08c379a00000000000000000000000000000000000000000000000000000000081526004016117c190612af1565b60405180910390fd5b6000831161180d576040517f08c379a0000000000000000000000000000000000000000000000000000000008152600401611804906130db565b60405180910390fd5b60066000815480929190611820906130fb565b919050555060006040518060a001604052808581526020013373ffffffffffffffffffffffffffffffffffffffff168152602001600654815260200184600281111561186f5761186e6126c8565b5b8152602001428152509050600033856006548660405160200161189594939291906131e2565b60405160208183030381529060405280519060200120905081600d60008381526020019081526020016000206000820151816000015560208201518160010160006101000a81548173ffffffffffffffffffffffffffffffffffffffff021916908373ffffffffffffffffffffffffffffffffffffffff1602179055506040820151816002015560608201518160030160006101000a81548160ff02191690836002811115611947576119466126c8565b5b0217905550608082015181600401559050503373ffffffffffffffffffffffffffffffffffffffff16817fee787cb2915ee2245f3016fd8f8bfb6a50fe4b6526c544a153fe8f6264841b068760065488426040516119a89493929190613230565b60405180910390a3809250505092915050565b60075481565b60001515600860008373ffffffffffffffffffffffffffffffffffffffff1673ffffffffffffffffffffffffffffffffffffffff16815260200190815260200160002060009054906101000a900460ff16151514611a54576040517f08c379a0000000000000000000000000000000000000000000000000000000008152600401611a4b906132c1565b60405180910390fd5b600073ffffffffffffffffffffffffffffffffffffffff168173ffffffffffffffffffffffffffffffffffffffff1603611ac3576040517f08c379a0000000000000000000000000000000000000000000000000000000008152600401611aba9061332d565b60405180910390fd5b6001600860008373ffffffffffffffffffffffffffffffffffffffff1673ffffffffffffffffffffffffffffffffffffffff16815260200190815260200160002060006101000a81548160ff021916908315150217905550600160046000828254611b2e919061334d565b925050819055508073ffffffffffffffffffffffffffffffffffffffff167fdcd9b74e47ad7a2b13791ca55a80544333071f0ee9d577fcd2cc70aa6c93daa042604051611b7b91906124e5565b60405180910390a250565b60096020528060005260406000206000915090505481565b600d6020528060005260406000206000915090508060000154908060010160009054906101000a900473ffffffffffffffffffffffffffffffffffffffff16908060020154908060030160009054906101000a900460ff16908060040154905085565b611c09612261565b600073ffffffffffffffffffffffffffffffffffffffff168173ffffffffffffffffffffffffffffffffffffffff1603611c7b5760006040517f1e4fbdf7000000000000000000000000000000000000000000000000000000008152600401611c72919061250f565b60405180910390fd5b611c84816122e8565b50565b611c8f6123ae565b6000600d60008381526020019081526020016000206000015411611ce8576040517f08c379a0000000000000000000000000000000000000000000000000000000008152600401611cdf906133cd565b60405180910390fd5b6000600d60008381526020019081526020016000206040518060a0016040529081600082015481526020016001820160009054906101000a900473ffffffffffffffffffffffffffffffffffffffff1673ffffffffffffffffffffffffffffffffffffffff1673ffffffffffffffffffffffffffffffffffffffff168152602001600282015481526020016003820160009054906101000a900460ff166002811115611d9757611d966126c8565b5b6002811115611da957611da86126c8565b5b81526020016004820154815250509050600060646005548360000151611dcf91906133ed565b611dd9919061345e565b90506000818360000151611ded9190612a48565b905060016002811115611e0357611e026126c8565b5b83606001516002811115611e1a57611e196126c8565b5b03611f69576000600260009054906101000a900473ffffffffffffffffffffffffffffffffffffffff1690508073ffffffffffffffffffffffffffffffffffffffff166323b872dd333087600001516040518463ffffffff1660e01b8152600401611e879392919061348f565b6020604051808303816000875af1158015611ea6573d6000803e3d6000fd5b505050506040513d601f19601f82011682018060405250810190611eca9190612c64565b611f09576040517f08c379a0000000000000000000000000000000000000000000000000000000008152600401611f0090613512565b60405180910390fd5b8160096000866020015173ffffffffffffffffffffffffffffffffffffffff1673ffffffffffffffffffffffffffffffffffffffff1681526020019081526020016000206000828254611f5c919061334d565b925050819055505061216f565b600280811115611f7c57611f7b6126c8565b5b83606001516002811115611f9357611f926126c8565b5b036120e2576000600360009054906101000a900473ffffffffffffffffffffffffffffffffffffffff1690508073ffffffffffffffffffffffffffffffffffffffff166323b872dd333087600001516040518463ffffffff1660e01b81526004016120009392919061348f565b6020604051808303816000875af115801561201f573d6000803e3d6000fd5b505050506040513d601f19601f820116820180604052508101906120439190612c64565b612082576040517f08c379a000000000000000000000000000000000000000000000000000000000815260040161207990613512565b60405180910390fd5b81600a6000866020015173ffffffffffffffffffffffffffffffffffffffff1673ffffffffffffffffffffffffffffffffffffffff16815260200190815260200160002060008282546120d5919061334d565b925050819055505061216e565b600060028111156120f6576120f56126c8565b5b8360600151600281111561210d5761210c6126c8565b5b0361216d5780600b6000856020015173ffffffffffffffffffffffffffffffffffffffff1673ffffffffffffffffffffffffffffffffffffffff1681526020019081526020016000206000828254612165919061334d565b925050819055505b5b5b60076000815480929190612182906130fb565b9190505550600c6000846020015173ffffffffffffffffffffffffffffffffffffffff1673ffffffffffffffffffffffffffffffffffffffff16815260200190815260200160002060008154809291906121db906130fb565b9190505550826020015173ffffffffffffffffffffffffffffffffffffffff163373ffffffffffffffffffffffffffffffffffffffff167f442e7acf7107f0f0dc143ea7c4d490032e180c4e41df266408673b1f7be1db3b8560000151866060015160405161224b929190613532565b60405180910390a350505061225e6123f4565b50565b6122696123fe565b73ffffffffffffffffffffffffffffffffffffffff1661228761155d565b73ffffffffffffffffffffffffffffffffffffffff16146122e6576122aa6123fe565b6040517f118cdaa70000000000000000000000000000000000000000000000000000000081526004016122dd919061250f565b60405180910390fd5b565b6000600160009054906101000a900473ffffffffffffffffffffffffffffffffffffffff16905081600160006101000a81548173ffffffffffffffffffffffffffffffffffffffff021916908373ffffffffffffffffffffffffffffffffffffffff1602179055508173ffffffffffffffffffffffffffffffffffffffff168173ffffffffffffffffffffffffffffffffffffffff167f8be0079c531659141344cd1fd0a4f28419497f9722a3daafe3b4186f6b6457e060405160405180910390a35050565b6002600054036123ea576040517f3ee5aeb500000000000000000000000000000000000000000000000000000000815260040160405180910390fd5b6002600081905550565b6001600081905550565b600033905090565b600080fd5b600073ffffffffffffffffffffffffffffffffffffffff82169050919050565b60006124368261240b565b9050919050565b6124468161242b565b811461245157600080fd5b50565b6000813590506124638161243d565b92915050565b60006020828403121561247f5761247e612406565b5b600061248d84828501612454565b91505092915050565b60008115159050919050565b6124ab81612496565b82525050565b60006020820190506124c660008301846124a2565b92915050565b6000819050919050565b6124df816124cc565b82525050565b60006020820190506124fa60008301846124d6565b92915050565b6125098161242b565b82525050565b60006020820190506125246000830184612500565b92915050565b612533816124cc565b811461253e57600080fd5b50565b6000813590506125508161252a565b92915050565b60006020828403121561256c5761256b612406565b5b600061257a84828501612541565b91505092915050565b6003811061259057600080fd5b50565b6000813590506125a281612583565b92915050565b6000806000606084860312156125c1576125c0612406565b5b60006125cf86828701612454565b93505060206125e086828701612541565b92505060406125f186828701612593565b9150509250925092565b6000806040838503121561261257612611612406565b5b600061262085828601612541565b925050602061263185828601612593565b9150509250929050565b6000819050919050565b61264e8161263b565b82525050565b60006020820190506126696000830184612645565b92915050565b6126788161263b565b811461268357600080fd5b50565b6000813590506126958161266f565b92915050565b6000602082840312156126b1576126b0612406565b5b60006126bf84828501612686565b91505092915050565b7f4e487b7100000000000000000000000000000000000000000000000000000000600052602160045260246000fd5b60038110612708576127076126c8565b5b50565b6000819050612719826126f7565b919050565b60006127298261270b565b9050919050565b6127398161271e565b82525050565b600060a08201905061275460008301886124d6565b6127616020830187612500565b61276e60408301866124d6565b61277b6060830185612730565b61278860808301846124d6565b9695505050505050565b600082825260208201905092915050565b7f4e6577205553445420616464726573732063616e6e6f74206265207a65726f2060008201527f6164647265737300000000000000000000000000000000000000000000000000602082015250565b60006127ff602783612792565b915061280a826127a3565b604082019050919050565b6000602082019050818103600083015261282e816127f2565b9050919050565b7f4e657720555344542061646472657373206d757374206265206469666665726560008201527f6e74000000000000000000000000000000000000000000000000000000000000602082015250565b6000612891602283612792565b915061289c82612835565b604082019050919050565b600060208201905081810360008301526128c081612884565b9050919050565b7f5553445400000000000000000000000000000000000000000000000000000000600082015250565b60006128fd600483612792565b9150612908826128c7565b602082019050919050565b6000604082019050818103600083015261292c816128f0565b905061293b6020830184612500565b92915050565b7f41646472657373206973206e6f742061204d65726368616e7400000000000000600082015250565b6000612977601983612792565b915061298282612941565b602082019050919050565b600060208201905081810360008301526129a68161296a565b9050919050565b7f4d65726368616e74206e756d6265722069732030000000000000000000000000600082015250565b60006129e3601483612792565b91506129ee826129ad565b602082019050919050565b60006020820190508181036000830152612a12816129d6565b9050919050565b7f4e487b7100000000000000000000000000000000000000000000000000000000600052601160045260246000fd5b6000612a53826124cc565b9150612a5e836124cc565b9250828203905081811115612a7657612a75612a19565b5b92915050565b6000604082019050612a9160008301856124d6565b612a9e60208301846124d6565b9392505050565b7f43616c6c6572206973206e6f742061206d65726368616e740000000000000000600082015250565b6000612adb601883612792565b9150612ae682612aa5565b602082019050919050565b60006020820190508181036000830152612b0a81612ace565b9050919050565b7f5769746864726177616c20616d6f756e74206d7573742062652067726561746560008201527f72207468616e2030000000000000000000000000000000000000000000000000602082015250565b6000612b6d602883612792565b9150612b7882612b11565b604082019050919050565b60006020820190508181036000830152612b9c81612b60565b9050919050565b7f496e73756666696369656e7420555344542062616c616e636500000000000000600082015250565b6000612bd9601983612792565b9150612be482612ba3565b602082019050919050565b60006020820190508181036000830152612c0881612bcc565b9050919050565b6000604082019050612c246000830185612500565b612c3160208301846124d6565b9392505050565b612c4181612496565b8114612c4c57600080fd5b50565b600081519050612c5e81612c38565b92915050565b600060208284031215612c7a57612c79612406565b5b6000612c8884828501612c4f565b91505092915050565b7f55534454207472616e73666572206661696c6564000000000000000000000000600082015250565b6000612cc7601483612792565b9150612cd282612c91565b602082019050919050565b60006020820190508181036000830152612cf681612cba565b9050919050565b7f496e73756666696369656e7420574254432062616c616e636500000000000000600082015250565b6000612d33601983612792565b9150612d3e82612cfd565b602082019050919050565b60006020820190508181036000830152612d6281612d26565b9050919050565b7f57425443207472616e73666572206661696c6564000000000000000000000000600082015250565b6000612d9f601483612792565b9150612daa82612d69565b602082019050919050565b60006020820190508181036000830152612dce81612d92565b9050919050565b7f496e73756666696369656e742045746865722062616c616e6365000000000000600082015250565b6000612e0b601a83612792565b9150612e1682612dd5565b602082019050919050565b60006020820190508181036000830152612e3a81612dfe565b9050919050565b6000606082019050612e5660008301866124d6565b612e636020830185612730565b612e7060408301846124d6565b949350505050565b600081519050612e878161252a565b92915050565b600060208284031215612ea357612ea2612406565b5b6000612eb184828501612e78565b91505092915050565b6000606082019050612ecf60008301866124d6565b612edc6020830185612500565b612ee960408301846124d6565b949350505050565b7f4e6577205742544320616464726573732063616e6e6f74206265207a65726f2060008201527f6164647265737300000000000000000000000000000000000000000000000000602082015250565b6000612f4d602783612792565b9150612f5882612ef1565b604082019050919050565b60006020820190508181036000830152612f7c81612f40565b9050919050565b7f4e657720574254432061646472657373206d757374206265206469666665726560008201527f6e74000000000000000000000000000000000000000000000000000000000000602082015250565b6000612fdf602283612792565b9150612fea82612f83565b604082019050919050565b6000602082019050818103600083015261300e81612fd2565b9050919050565b7f5742544300000000000000000000000000000000000000000000000000000000600082015250565b600061304b600483612792565b915061305682613015565b602082019050919050565b6000604082019050818103600083015261307a8161303e565b90506130896020830184612500565b92915050565b7f416d6f756e74206d7573742062652067726561746572207468616e20302e0000600082015250565b60006130c5601e83612792565b91506130d08261308f565b602082019050919050565b600060208201905081810360008301526130f4816130b8565b9050919050565b6000613106826124cc565b91507fffffffffffffffffffffffffffffffffffffffffffffffffffffffffffffffff820361313857613137612a19565b5b600182019050919050565b60008160601b9050919050565b600061315b82613143565b9050919050565b600061316d82613150565b9050919050565b6131856131808261242b565b613162565b82525050565b6000819050919050565b6131a66131a1826124cc565b61318b565b82525050565b60008160f81b9050919050565b60006131c4826131ac565b9050919050565b6131dc6131d78261271e565b6131b9565b82525050565b60006131ee8287613174565b6014820191506131fe8286613195565b60208201915061320e8285613195565b60208201915061321e82846131cb565b60018201915081905095945050505050565b600060808201905061324560008301876124d6565b61325260208301866124d6565b61325f6040830185612730565b61326c60608301846124d6565b95945050505050565b7f4164647265737320697320616c72656164792061204d65726368616e74000000600082015250565b60006132ab601d83612792565b91506132b682613275565b602082019050919050565b600060208201905081810360008301526132da8161329e565b9050919050565b7f41646472657373206973206e6f742076616c6964000000000000000000000000600082015250565b6000613317601483612792565b9150613322826132e1565b602082019050919050565b600060208201905081810360008301526133468161330a565b9050919050565b6000613358826124cc565b9150613363836124cc565b925082820190508082111561337b5761337a612a19565b5b92915050565b7f496e76616c6964207061796d656e74206c696e6b2e0000000000000000000000600082015250565b60006133b7601583612792565b91506133c282613381565b602082019050919050565b600060208201905081810360008301526133e6816133aa565b9050919050565b60006133f8826124cc565b9150613403836124cc565b9250828202613411816124cc565b9150828204841483151761342857613427612a19565b5b5092915050565b7f4e487b7100000000000000000000000000000000000000000000000000000000600052601260045260246000fd5b6000613469826124cc565b9150613474836124cc565b9250826134845761348361342f565b5b828204905092915050565b60006060820190506134a46000830186612500565b6134b16020830185612500565b6134be60408301846124d6565b949350505050565b7f5061796d656e74207472616e73666572206661696c6564000000000000000000600082015250565b60006134fc601783612792565b9150613507826134c6565b602082019050919050565b6000602082019050818103600083015261352b816134ef565b9050919050565b600060408201905061354760008301856124d6565b6135546020830184612730565b939250505056fea26469706673582212204f8dd8104bbb7fd82c2ed87291c181f9a1c70a9097587eba6945080cfe2f076b64736f6c63430008140033",
  "linkReferences": {},
  "deployedLinkReferences": {}
}