{
  "_format": "hh-sol-artifact-1",
  "contractName": "Payblauq_Merchant",
  "sourceName": "contracts/Web3PaymentGateway.sol",
  "abi": [
    {
      "inputs": [
        {
          "internalType": "address",
          "name": "initialOwner",
          "type": "address"
        },
        {
          "internalType": "address",
          "name": "_usdtAddress",
          "type": "address"
        },
        {
          "internalType": "address",
          "name": "_wbtcAddress",
          "type": "address"
        }
      ],
      "stateMutability": "nonpayable",
      "type": "constructor"
    },
    {
      "inputs": [
        {
          "internalType": "address",
          "name": "owner",
          "type": "address"
        }
      ],
      "name": "OwnableInvalidOwner",
      "type": "error"
    },
    {
      "inputs": [
        {
          "internalType": "address",
          "name": "account",
          "type": "address"
        }
      ],
      "name": "OwnableUnauthorizedAccount",
      "type": "error"
    },
    {
      "inputs": [],
      "name": "ReentrancyGuardReentrantCall",
      "type": "error"
    },
    {
      "anonymous": false,
      "inputs": [
        {
          "indexed": false,
          "internalType": "uint256",
          "name": "amountWithdrawn",
          "type": "uint256"
        },
        {
          "indexed": false,
          "internalType": "address",
          "name": "withdrawaAddress",
          "type": "address"
        },
        {
          "indexed": false,
          "internalType": "uint256",
          "name": "time",
          "type": "uint256"
        }
      ],
      "name": "AdminWithdraw",
      "type": "event"
    },
    {
      "anonymous": false,
      "inputs": [
        {
          "indexed": false,
          "internalType": "uint256",
          "name": "currentFees",
          "type": "uint256"
        },
        {
          "indexed": false,
          "internalType": "uint256",
          "name": "timeChanged",
          "type": "uint256"
        }
      ],
      "name": "FeesChanged",
      "type": "event"
    },
    {
      "anonymous": false,
      "inputs": [
        {
          "indexed": true,
          "internalType": "address",
          "name": "merchantAddress",
          "type": "address"
        },
        {
          "indexed": false,
          "internalType": "uint256",
          "name": "time",
          "type": "uint256"
        }
      ],
      "name": "MerchantAdded",
      "type": "event"
    },
    {
      "anonymous": false,
      "inputs": [
        {
          "indexed": true,
          "internalType": "address",
          "name": "merchantAddress",
          "type": "address"
        },
        {
          "indexed": false,
          "internalType": "uint256",
          "name": "time",
          "type": "uint256"
        }
      ],
      "name": "MerchantRemoved",
      "type": "event"
    },
    {
      "anonymous": false,
      "inputs": [
        {
          "indexed": false,
          "internalType": "uint256",
          "name": "amountWithdrawn",
          "type": "uint256"
        },
        {
          "indexed": true,
          "internalType": "address",
          "name": "merchant",
          "type": "address"
        },
        {
          "indexed": false,
          "internalType": "enum Payblauq_Merchant.CurrencyType",
          "name": "currency",
          "type": "uint8"
        },
        {
          "indexed": false,
          "internalType": "uint256",
          "name": "time",
          "type": "uint256"
        }
      ],
      "name": "MerchantWithdraw",
      "type": "event"
    },
    {
      "anonymous": false,
      "inputs": [
        {
          "indexed": true,
          "internalType": "address",
          "name": "previousOwner",
          "type": "address"
        },
        {
          "indexed": true,
          "internalType": "address",
          "name": "newOwner",
          "type": "address"
        }
      ],
      "name": "OwnershipTransferred",
      "type": "event"
    },
    {
      "anonymous": false,
      "inputs": [
        {
          "indexed": true,
          "internalType": "bytes32",
          "name": "linkId",
          "type": "bytes32"
        },
        {
          "indexed": true,
          "internalType": "address",
          "name": "merchant",
          "type": "address"
        },
        {
          "indexed": false,
          "internalType": "uint256",
          "name": "amountTokens",
          "type": "uint256"
        },
        {
          "indexed": false,
          "internalType": "uint256",
          "name": "currentPaymentId",
          "type": "uint256"
        },
        {
          "indexed": false,
          "internalType": "enum Payblauq_Merchant.CurrencyType",
          "name": "currency",
          "type": "uint8"
        },
        {
          "indexed": false,
          "internalType": "uint256",
          "name": "transactionTime",
          "type": "uint256"
        }
      ],
      "name": "PaymentLinkGenerated",
      "type": "event"
    },
    {
      "anonymous": false,
      "inputs": [
        {
          "indexed": true,
          "internalType": "address",
          "name": "from",
          "type": "address"
        },
        {
          "indexed": false,
          "internalType": "uint256",
          "name": "amount",
          "type": "uint256"
        },
        {
          "indexed": false,
          "internalType": "enum Payblauq_Merchant.CurrencyType",
          "name": "currency",
          "type": "uint8"
        }
      ],
      "name": "PaymentReceived",
      "type": "event"
    },
    {
      "anonymous": false,
      "inputs": [
        {
          "indexed": false,
          "internalType": "string",
          "name": "tokenType",
          "type": "string"
        },
        {
          "indexed": false,
          "internalType": "address",
          "name": "newAddress",
          "type": "address"
        }
      ],
      "name": "TokenAddressUpdated",
      "type": "event"
    },
    {
      "inputs": [
        {
          "internalType": "address",
          "name": "merchantAddress",
          "type": "address"
        }
      ],
      "name": "addMerchant",
      "outputs": [],
      "stateMutability": "nonpayable",
      "type": "function"
    },
    {
      "inputs": [
        {
          "internalType": "address",
          "name": "withdrawalAddress",
          "type": "address"
        },
        {
          "internalType": "uint256",
          "name": "amount",
          "type": "uint256"
        },
        {
          "internalType": "enum Payblauq_Merchant.CurrencyType",
          "name": "currency",
          "type": "uint8"
        }
      ],
      "name": "adminWithdraw",
      "outputs": [],
      "stateMutability": "nonpayable",
      "type": "function"
    },
    {
      "inputs": [
        {
          "internalType": "uint256",
          "name": "percentage",
          "type": "uint256"
        }
      ],
      "name": "changeFees",
      "outputs": [],
      "stateMutability": "nonpayable",
      "type": "function"
    },
    {
      "inputs": [],
      "name": "currentFeesinPercentage",
      "outputs": [
        {
          "internalType": "uint256",
          "name": "",
          "type": "uint256"
        }
      ],
      "stateMutability": "view",
      "type": "function"
    },
    {
      "inputs": [],
      "name": "currentPaymentId",
      "outputs": [
        {
          "internalType": "uint256",
          "name": "",
          "type": "uint256"
        }
      ],
      "stateMutability": "view",
      "type": "function"
    },
    {
      "inputs": [
        {
          "internalType": "uint256",
          "name": "amountTokens",
          "type": "uint256"
        },
        {
          "internalType": "enum Payblauq_Merchant.CurrencyType",
          "name": "currency",
          "type": "uint8"
        }
      ],
      "name": "generatePaymentLink",
      "outputs": [
        {
          "internalType": "bytes32",
          "name": "",
          "type": "bytes32"
        }
      ],
      "stateMutability": "nonpayable",
      "type": "function"
    },
    {
      "inputs": [
        {
          "internalType": "address",
          "name": "",
          "type": "address"
        }
      ],
      "name": "merchant",
      "outputs": [
        {
          "internalType": "bool",
          "name": "",
          "type": "bool"
        }
      ],
      "stateMutability": "view",
      "type": "function"
    },
    {
      "inputs": [
        {
          "internalType": "address",
          "name": "withdrawalAddress",
          "type": "address"
        },
        {
          "internalType": "uint256",
          "name": "amount",
          "type": "uint256"
        },
        {
          "internalType": "enum Payblauq_Merchant.CurrencyType",
          "name": "currency",
          "type": "uint8"
        }
      ],
      "name": "merchantWithdraw",
      "outputs": [],
      "stateMutability": "nonpayable",
      "type": "function"
    },
    {
      "inputs": [],
      "name": "owner",
      "outputs": [
        {
          "internalType": "address",
          "name": "",
          "type": "address"
        }
      ],
      "stateMutability": "view",
      "type": "function"
    },
    {
      "inputs": [
        {
          "internalType": "bytes32",
          "name": "linkId",
          "type": "bytes32"
        }
      ],
      "name": "payWithLink",
      "outputs": [],
      "stateMutability": "payable",
      "type": "function"
    },
    {
      "inputs": [
        {
          "internalType": "bytes32",
          "name": "",
          "type": "bytes32"
        }
      ],
      "name": "paymentDetails",
      "outputs": [
        {
          "internalType": "uint256",
          "name": "amount",
          "type": "uint256"
        },
        {
          "internalType": "address",
          "name": "merchantAddress",
          "type": "address"
        },
        {
          "internalType": "uint256",
          "name": "paymentId",
          "type": "uint256"
        },
        {
          "internalType": "enum Payblauq_Merchant.CurrencyType",
          "name": "currency",
          "type": "uint8"
        },
        {
          "internalType": "uint256",
          "name": "transactionTime",
          "type": "uint256"
        }
      ],
      "stateMutability": "view",
      "type": "function"
    },
    {
      "inputs": [
        {
          "internalType": "address",
          "name": "merchantAddress",
          "type": "address"
        }
      ],
      "name": "removeMerchant",
      "outputs": [],
      "stateMutability": "nonpayable",
      "type": "function"
    },
    {
      "inputs": [],
      "name": "renounceOwnership",
      "outputs": [],
      "stateMutability": "nonpayable",
      "type": "function"
    },
    {
      "inputs": [
        {
          "internalType": "address",
          "name": "",
          "type": "address"
        }
      ],
      "name": "totalAmountETHERTransaction",
      "outputs": [
        {
          "internalType": "uint256",
          "name": "",
          "type": "uint256"
        }
      ],
      "stateMutability": "view",
      "type": "function"
    },
    {
      "inputs": [
        {
          "internalType": "address",
          "name": "",
          "type": "address"
        }
      ],
      "name": "totalAmountUSDTTransaction",
      "outputs": [
        {
          "internalType": "uint256",
          "name": "",
          "type": "uint256"
        }
      ],
      "stateMutability": "view",
      "type": "function"
    },
    {
      "inputs": [
        {
          "internalType": "address",
          "name": "",
          "type": "address"
        }
      ],
      "name": "totalAmountWBTCTransaction",
      "outputs": [
        {
          "internalType": "uint256",
          "name": "",
          "type": "uint256"
        }
      ],
      "stateMutability": "view",
      "type": "function"
    },
    {
      "inputs": [
        {
          "internalType": "address",
          "name": "",
          "type": "address"
        }
      ],
      "name": "totalMerchantTransaction",
      "outputs": [
        {
          "internalType": "uint256",
          "name": "",
          "type": "uint256"
        }
      ],
      "stateMutability": "view",
      "type": "function"
    },
    {
      "inputs": [],
      "name": "totalNumMerchant",
      "outputs": [
        {
          "internalType": "uint256",
          "name": "",
          "type": "uint256"
        }
      ],
      "stateMutability": "view",
      "type": "function"
    },
    {
      "inputs": [],
      "name": "totalTransactions",
      "outputs": [
        {
          "internalType": "uint256",
          "name": "",
          "type": "uint256"
        }
      ],
      "stateMutability": "view",
      "type": "function"
    },
    {
      "inputs": [
        {
          "internalType": "address",
          "name": "newOwner",
          "type": "address"
        }
      ],
      "name": "transferOwnership",
      "outputs": [],
      "stateMutability": "nonpayable",
      "type": "function"
    },
    {
      "inputs": [
        {
          "internalType": "address",
          "name": "newUsdtAddress",
          "type": "address"
        }
      ],
      "name": "updateUsdtAddress",
      "outputs": [],
      "stateMutability": "nonpayable",
      "type": "function"
    },
    {
      "inputs": [
        {
          "internalType": "address",
          "name": "newWbtcAddress",
          "type": "address"
        }
      ],
      "name": "updateWbtcAddress",
      "outputs": [],
      "stateMutability": "nonpayable",
      "type": "function"
    },
    {
      "inputs": [],
      "name": "usdtAddress",
      "outputs": [
        {
          "internalType": "address",
          "name": "",
          "type": "address"
        }
      ],
      "stateMutability": "view",
      "type": "function"
    },
    {
      "inputs": [],
      "name": "wbtcAddress",
      "outputs": [
        {
          "internalType": "address",
          "name": "",
          "type": "address"
        }
      ],
      "stateMutability": "view",
      "type": "function"
    }
  ],
  "bytecode": "0x6080604052600160055560006006553480156200001b57600080fd5b50604051620038853803806200388583398181016040528101906200004191906200028c565b826001600081905550600073ffffffffffffffffffffffffffffffffffffffff168173ffffffffffffffffffffffffffffffffffffffff1603620000bf5760006040517f1e4fbdf7000000000000000000000000000000000000000000000000000000008152600401620000b69190620002f9565b60405180910390fd5b620000d0816200015c60201b60201c565b5081600260006101000a81548173ffffffffffffffffffffffffffffffffffffffff021916908373ffffffffffffffffffffffffffffffffffffffff16021790555080600360006101000a81548173ffffffffffffffffffffffffffffffffffffffff021916908373ffffffffffffffffffffffffffffffffffffffff16021790555050505062000316565b6000600160009054906101000a900473ffffffffffffffffffffffffffffffffffffffff16905081600160006101000a81548173ffffffffffffffffffffffffffffffffffffffff021916908373ffffffffffffffffffffffffffffffffffffffff1602179055508173ffffffffffffffffffffffffffffffffffffffff168173ffffffffffffffffffffffffffffffffffffffff167f8be0079c531659141344cd1fd0a4f28419497f9722a3daafe3b4186f6b6457e060405160405180910390a35050565b600080fd5b600073ffffffffffffffffffffffffffffffffffffffff82169050919050565b6000620002548262000227565b9050919050565b620002668162000247565b81146200027257600080fd5b50565b60008151905062000286816200025b565b92915050565b600080600060608486031215620002a857620002a762000222565b5b6000620002b88682870162000275565b9350506020620002cb8682870162000275565b9250506040620002de8682870162000275565b9150509250925092565b620002f38162000247565b82525050565b6000602082019050620003106000830184620002e8565b92915050565b61355f80620003266000396000f3fe60806040526004361061014b5760003560e01c80638c6376e7116100b6578063b9a600381161006f578063b9a6003814610490578063bf76c0ef146104bb578063c7396c24146104e4578063cfbacaa214610521578063f2fde38b14610562578063f53546ed1461058b5761014b565b80638c6376e71461037e5780638da5cb5b146103a957806391002e2e146103d45780639ab4a445146103ff578063b07d2e4a1461042a578063b71c2743146104535761014b565b806361a2ac391161010857806361a2ac39146102845780636cda375b146102af578063715018a6146102d857806377e0d850146102ef5780637d800b761461031857806382b351bf146103555761014b565b80630d69460414610150578063133adab614610179578063215c9417146101a25780634c5e3700146101df5780634c84b6991461020a5780634f2b209614610247575b600080fd5b34801561015c57600080fd5b5061017760048036038101906101729190612437565b6105a7565b005b34801561018557600080fd5b506101a0600480360381019061019b9190612437565b610729565b005b3480156101ae57600080fd5b506101c960048036038101906101c49190612437565b6108cc565b6040516101d6919061247f565b60405180910390f35b3480156101eb57600080fd5b506101f46108ec565b60405161020191906124b3565b60405180910390f35b34801561021657600080fd5b50610231600480360381019061022c9190612437565b6108f2565b60405161023e91906124b3565b60405180910390f35b34801561025357600080fd5b5061026e60048036038101906102699190612437565b61090a565b60405161027b91906124b3565b60405180910390f35b34801561029057600080fd5b50610299610922565b6040516102a691906124dd565b60405180910390f35b3480156102bb57600080fd5b506102d660048036038101906102d19190612524565b610948565b005b3480156102e457600080fd5b506102ed610993565b005b3480156102fb57600080fd5b5061031660048036038101906103119190612576565b6109a7565b005b34801561032457600080fd5b5061033f600480360381019061033a9190612437565b61101f565b60405161034c91906124b3565b60405180910390f35b34801561036157600080fd5b5061037c60048036038101906103779190612576565b611037565b005b34801561038a57600080fd5b50610393611540565b6040516103a091906124b3565b60405180910390f35b3480156103b557600080fd5b506103be611546565b6040516103cb91906124dd565b60405180910390f35b3480156103e057600080fd5b506103e9611570565b6040516103f691906124b3565b60405180910390f35b34801561040b57600080fd5b50610414611576565b60405161042191906124dd565b60405180910390f35b34801561043657600080fd5b50610451600480360381019061044c9190612437565b61159c565b005b34801561045f57600080fd5b5061047a600480360381019061047591906125c9565b61171e565b6040516104879190612622565b60405180910390f35b34801561049c57600080fd5b506104a56119a4565b6040516104b291906124b3565b60405180910390f35b3480156104c757600080fd5b506104e260048036038101906104dd9190612437565b6119aa565b005b3480156104f057600080fd5b5061050b60048036038101906105069190612437565b611b6f565b60405161051891906124b3565b60405180910390f35b34801561052d57600080fd5b5061054860048036038101906105439190612669565b611b87565b60405161055995949392919061270d565b60405180910390f35b34801561056e57600080fd5b5061058960048036038101906105849190612437565b611bea565b005b6105a560048036038101906105a09190612669565b611c70565b005b6105af61222f565b600073ffffffffffffffffffffffffffffffffffffffff168173ffffffffffffffffffffffffffffffffffffffff160361061e576040517f08c379a0000000000000000000000000000000000000000000000000000000008152600401610615906127e3565b60405180910390fd5b600260009054906101000a900473ffffffffffffffffffffffffffffffffffffffff1673ffffffffffffffffffffffffffffffffffffffff168173ffffffffffffffffffffffffffffffffffffffff16036106ae576040517f08c379a00000000000000000000000000000000000000000000000000000000081526004016106a590612875565b60405180910390fd5b80600260006101000a81548173ffffffffffffffffffffffffffffffffffffffff021916908373ffffffffffffffffffffffffffffffffffffffff1602179055507f26b201b7b496fd4d48a85cb458835d5b6fc4e56242279b5a63b6fbf75f674c5a8160405161071e91906128e1565b60405180910390a150565b61073161222f565b60011515600860008373ffffffffffffffffffffffffffffffffffffffff1673ffffffffffffffffffffffffffffffffffffffff16815260200190815260200160002060009054906101000a900460ff161515146107c4576040517f08c379a00000000000000000000000000000000000000000000000000000000081526004016107bb9061295b565b60405180910390fd5b600060045411610809576040517f08c379a0000000000000000000000000000000000000000000000000000000008152600401610800906129c7565b60405180910390fd5b6000600860008373ffffffffffffffffffffffffffffffffffffffff1673ffffffffffffffffffffffffffffffffffffffff16815260200190815260200160002060006101000a81548160ff0219169083151502179055506001600460008282546108749190612a16565b925050819055508073ffffffffffffffffffffffffffffffffffffffff167f021387214cc19adc927ffc55485d0f6a84fd87e67b21c431c7ed43a1f4da398f426040516108c191906124b3565b60405180910390a250565b60086020528060005260406000206000915054906101000a900460ff1681565b60055481565b600a6020528060005260406000206000915090505481565b600b6020528060005260406000206000915090505481565b600360009054906101000a900473ffffffffffffffffffffffffffffffffffffffff1681565b61095061222f565b806005819055507f64f84976d9c917a44796104a59950fdbd9b3c16a5dd348b546d738301f6bd0688142604051610988929190612a4a565b60405180910390a150565b61099b61222f565b6109a560006122b6565b565b60011515600860003373ffffffffffffffffffffffffffffffffffffffff1673ffffffffffffffffffffffffffffffffffffffff16815260200190815260200160002060009054906101000a900460ff16151514610a3a576040517f08c379a0000000000000000000000000000000000000000000000000000000008152600401610a3190612abf565b60405180910390fd5b610a4261237c565b60008211610a85576040517f08c379a0000000000000000000000000000000000000000000000000000000008152600401610a7c90612b51565b60405180910390fd5b60016002811115610a9957610a98612696565b5b816002811115610aac57610aab612696565b5b03610c79576000600260009054906101000a900473ffffffffffffffffffffffffffffffffffffffff1690506000600960003373ffffffffffffffffffffffffffffffffffffffff1673ffffffffffffffffffffffffffffffffffffffff16815260200190815260200160002054905083811015610b5f576040517f08c379a0000000000000000000000000000000000000000000000000000000008152600401610b5690612bbd565b60405180910390fd5b8173ffffffffffffffffffffffffffffffffffffffff1663a9059cbb86866040518363ffffffff1660e01b8152600401610b9a929190612bdd565b6020604051808303816000875af1158015610bb9573d6000803e3d6000fd5b505050506040513d601f19601f82011682018060405250810190610bdd9190612c32565b610c1c576040517f08c379a0000000000000000000000000000000000000000000000000000000008152600401610c1390612cab565b60405180910390fd5b83600960003373ffffffffffffffffffffffffffffffffffffffff1673ffffffffffffffffffffffffffffffffffffffff1681526020019081526020016000206000828254610c6b9190612a16565b925050819055505050610fc0565b600280811115610c8c57610c8b612696565b5b816002811115610c9f57610c9e612696565b5b03610e6c576000600360009054906101000a900473ffffffffffffffffffffffffffffffffffffffff1690506000600a60003373ffffffffffffffffffffffffffffffffffffffff1673ffffffffffffffffffffffffffffffffffffffff16815260200190815260200160002054905083811015610d52576040517f08c379a0000000000000000000000000000000000000000000000000000000008152600401610d4990612d17565b60405180910390fd5b8173ffffffffffffffffffffffffffffffffffffffff1663a9059cbb86866040518363ffffffff1660e01b8152600401610d8d929190612bdd565b6020604051808303816000875af1158015610dac573d6000803e3d6000fd5b505050506040513d601f19601f82011682018060405250810190610dd09190612c32565b610e0f576040517f08c379a0000000000000000000000000000000000000000000000000000000008152600401610e0690612d83565b60405180910390fd5b83600a60003373ffffffffffffffffffffffffffffffffffffffff1673ffffffffffffffffffffffffffffffffffffffff1681526020019081526020016000206000828254610e5e9190612a16565b925050819055505050610fbf565b60006002811115610e8057610e7f612696565b5b816002811115610e9357610e92612696565b5b03610fbe576000600b60003373ffffffffffffffffffffffffffffffffffffffff1673ffffffffffffffffffffffffffffffffffffffff16815260200190815260200160002054905082811015610f1f576040517f08c379a0000000000000000000000000000000000000000000000000000000008152600401610f1690612def565b60405180910390fd5b8373ffffffffffffffffffffffffffffffffffffffff166108fc849081150290604051600060405180830381858888f19350505050158015610f65573d6000803e3d6000fd5b5082600b60003373ffffffffffffffffffffffffffffffffffffffff1673ffffffffffffffffffffffffffffffffffffffff1681526020019081526020016000206000828254610fb59190612a16565b92505081905550505b5b5b8273ffffffffffffffffffffffffffffffffffffffff167ff6f40fcc107a35fb5d9f3113cbfeee42fa7ef19077decc7ebdd079481bfff1ab83834260405161100a93929190612e0f565b60405180910390a261101a6123c2565b505050565b600c6020528060005260406000206000915090505481565b61103f61222f565b61104761237c565b6000821161108a576040517f08c379a000000000000000000000000000000000000000000000000000000000815260040161108190612b51565b60405180910390fd5b6001600281111561109e5761109d612696565b5b8160028111156110b1576110b0612696565b5b03611262576000600260009054906101000a900473ffffffffffffffffffffffffffffffffffffffff16905060008173ffffffffffffffffffffffffffffffffffffffff166370a08231306040518263ffffffff1660e01b815260040161111891906124dd565b602060405180830381865afa158015611135573d6000803e3d6000fd5b505050506040513d601f19601f820116820180604052508101906111599190612e5b565b90508381101561119e576040517f08c379a000000000000000000000000000000000000000000000000000000000815260040161119590612bbd565b60405180910390fd5b8173ffffffffffffffffffffffffffffffffffffffff1663a9059cbb86866040518363ffffffff1660e01b81526004016111d9929190612bdd565b6020604051808303816000875af11580156111f8573d6000803e3d6000fd5b505050506040513d601f19601f8201168201806040525081019061121c9190612c32565b61125b576040517f08c379a000000000000000000000000000000000000000000000000000000000815260040161125290612cab565b60405180910390fd5b50506114f8565b60028081111561127557611274612696565b5b81600281111561128857611287612696565b5b03611439576000600360009054906101000a900473ffffffffffffffffffffffffffffffffffffffff16905060008173ffffffffffffffffffffffffffffffffffffffff166370a08231306040518263ffffffff1660e01b81526004016112ef91906124dd565b602060405180830381865afa15801561130c573d6000803e3d6000fd5b505050506040513d601f19601f820116820180604052508101906113309190612e5b565b905083811015611375576040517f08c379a000000000000000000000000000000000000000000000000000000000815260040161136c90612d17565b60405180910390fd5b8173ffffffffffffffffffffffffffffffffffffffff1663a9059cbb86866040518363ffffffff1660e01b81526004016113b0929190612bdd565b6020604051808303816000875af11580156113cf573d6000803e3d6000fd5b505050506040513d601f19601f820116820180604052508101906113f39190612c32565b611432576040517f08c379a000000000000000000000000000000000000000000000000000000000815260040161142990612d83565b60405180910390fd5b50506114f7565b6000600281111561144d5761144c612696565b5b8160028111156114605761145f612696565b5b036114f6576000479050828110156114ad576040517f08c379a00000000000000000000000000000000000000000000000000000000081526004016114a490612def565b60405180910390fd5b8373ffffffffffffffffffffffffffffffffffffffff166108fc849081150290604051600060405180830381858888f193505050501580156114f3573d6000803e3d6000fd5b50505b5b5b7f3283abdb05cff705bd4faab57c532a3d4bfe5c83685e9c69e83d459bb88fb07382844260405161152b93929190612e88565b60405180910390a161153b6123c2565b505050565b60045481565b6000600160009054906101000a900473ffffffffffffffffffffffffffffffffffffffff16905090565b60065481565b600260009054906101000a900473ffffffffffffffffffffffffffffffffffffffff1681565b6115a461222f565b600073ffffffffffffffffffffffffffffffffffffffff168173ffffffffffffffffffffffffffffffffffffffff1603611613576040517f08c379a000000000000000000000000000000000000000000000000000000000815260040161160a90612f31565b60405180910390fd5b600360009054906101000a900473ffffffffffffffffffffffffffffffffffffffff1673ffffffffffffffffffffffffffffffffffffffff168173ffffffffffffffffffffffffffffffffffffffff16036116a3576040517f08c379a000000000000000000000000000000000000000000000000000000000815260040161169a90612fc3565b60405180910390fd5b80600360006101000a81548173ffffffffffffffffffffffffffffffffffffffff021916908373ffffffffffffffffffffffffffffffffffffffff1602179055507f26b201b7b496fd4d48a85cb458835d5b6fc4e56242279b5a63b6fbf75f674c5a81604051611713919061302f565b60405180910390a150565b600060011515600860003373ffffffffffffffffffffffffffffffffffffffff1673ffffffffffffffffffffffffffffffffffffffff16815260200190815260200160002060009054906101000a900460ff161515146117b3576040517f08c379a00000000000000000000000000000000000000000000000000000000081526004016117aa90612abf565b60405180910390fd5b600083116117f6576040517f08c379a00000000000000000000000000000000000000000000000000000000081526004016117ed906130a9565b60405180910390fd5b60066000815480929190611809906130c9565b919050555060006040518060a001604052808581526020013373ffffffffffffffffffffffffffffffffffffffff168152602001600654815260200184600281111561185857611857612696565b5b8152602001428152509050600033856006548660405160200161187e94939291906131b0565b60405160208183030381529060405280519060200120905081600d60008381526020019081526020016000206000820151816000015560208201518160010160006101000a81548173ffffffffffffffffffffffffffffffffffffffff021916908373ffffffffffffffffffffffffffffffffffffffff1602179055506040820151816002015560608201518160030160006101000a81548160ff021916908360028111156119305761192f612696565b5b0217905550608082015181600401559050503373ffffffffffffffffffffffffffffffffffffffff16817fee787cb2915ee2245f3016fd8f8bfb6a50fe4b6526c544a153fe8f6264841b0687600654884260405161199194939291906131fe565b60405180910390a3809250505092915050565b60075481565b60001515600860008373ffffffffffffffffffffffffffffffffffffffff1673ffffffffffffffffffffffffffffffffffffffff16815260200190815260200160002060009054906101000a900460ff16151514611a3d576040517f08c379a0000000000000000000000000000000000000000000000000000000008152600401611a349061328f565b60405180910390fd5b600073ffffffffffffffffffffffffffffffffffffffff168173ffffffffffffffffffffffffffffffffffffffff1603611aac576040517f08c379a0000000000000000000000000000000000000000000000000000000008152600401611aa3906132fb565b60405180910390fd5b6001600860008373ffffffffffffffffffffffffffffffffffffffff1673ffffffffffffffffffffffffffffffffffffffff16815260200190815260200160002060006101000a81548160ff021916908315150217905550600160046000828254611b17919061331b565b925050819055508073ffffffffffffffffffffffffffffffffffffffff167fdcd9b74e47ad7a2b13791ca55a80544333071f0ee9d577fcd2cc70aa6c93daa042604051611b6491906124b3565b60405180910390a250565b60096020528060005260406000206000915090505481565b600d6020528060005260406000206000915090508060000154908060010160009054906101000a900473ffffffffffffffffffffffffffffffffffffffff16908060020154908060030160009054906101000a900460ff16908060040154905085565b611bf261222f565b600073ffffffffffffffffffffffffffffffffffffffff168173ffffffffffffffffffffffffffffffffffffffff1603611c645760006040517f1e4fbdf7000000000000000000000000000000000000000000000000000000008152600401611c5b91906124dd565b60405180910390fd5b611c6d816122b6565b50565b611c7861237c565b6000600d60008381526020019081526020016000206000015411611cd1576040517f08c379a0000000000000000000000000000000000000000000000000000000008152600401611cc89061339b565b60405180910390fd5b6000600d60008381526020019081526020016000206040518060a0016040529081600082015481526020016001820160009054906101000a900473ffffffffffffffffffffffffffffffffffffffff1673ffffffffffffffffffffffffffffffffffffffff1673ffffffffffffffffffffffffffffffffffffffff168152602001600282015481526020016003820160009054906101000a900460ff166002811115611d8057611d7f612696565b5b6002811115611d9257611d91612696565b5b81526020016004820154815250509050600060646005548360000151611db891906133bb565b611dc2919061342c565b90506000818360000151611dd69190612a16565b905060016002811115611dec57611deb612696565b5b83606001516002811115611e0357611e02612696565b5b03611f52576000600260009054906101000a900473ffffffffffffffffffffffffffffffffffffffff1690508073ffffffffffffffffffffffffffffffffffffffff166323b872dd333087600001516040518463ffffffff1660e01b8152600401611e709392919061345d565b6020604051808303816000875af1158015611e8f573d6000803e3d6000fd5b505050506040513d601f19601f82011682018060405250810190611eb39190612c32565b611ef2576040517f08c379a0000000000000000000000000000000000000000000000000000000008152600401611ee9906134e0565b60405180910390fd5b8160096000866020015173ffffffffffffffffffffffffffffffffffffffff1673ffffffffffffffffffffffffffffffffffffffff1681526020019081526020016000206000828254611f45919061331b565b9250508190555050612158565b600280811115611f6557611f64612696565b5b83606001516002811115611f7c57611f7b612696565b5b036120cb576000600360009054906101000a900473ffffffffffffffffffffffffffffffffffffffff1690508073ffffffffffffffffffffffffffffffffffffffff166323b872dd333087600001516040518463ffffffff1660e01b8152600401611fe99392919061345d565b6020604051808303816000875af1158015612008573d6000803e3d6000fd5b505050506040513d601f19601f8201168201806040525081019061202c9190612c32565b61206b576040517f08c379a0000000000000000000000000000000000000000000000000000000008152600401612062906134e0565b60405180910390fd5b81600a6000866020015173ffffffffffffffffffffffffffffffffffffffff1673ffffffffffffffffffffffffffffffffffffffff16815260200190815260200160002060008282546120be919061331b565b9250508190555050612157565b600060028111156120df576120de612696565b5b836060015160028111156120f6576120f5612696565b5b036121565780600b6000856020015173ffffffffffffffffffffffffffffffffffffffff1673ffffffffffffffffffffffffffffffffffffffff168152602001908152602001600020600082825461214e919061331b565b925050819055505b5b5b6007600081548092919061216b906130c9565b9190505550600c6000846020015173ffffffffffffffffffffffffffffffffffffffff1673ffffffffffffffffffffffffffffffffffffffff16815260200190815260200160002060008154809291906121c4906130c9565b91905055503373ffffffffffffffffffffffffffffffffffffffff167f7798236973338390ade9f2f68e3a8a56f1c35f2be34ce43073a8f1f5def4236f84600001518560600151604051612219929190613500565b60405180910390a250505061222c6123c2565b50565b6122376123cc565b73ffffffffffffffffffffffffffffffffffffffff16612255611546565b73ffffffffffffffffffffffffffffffffffffffff16146122b4576122786123cc565b6040517f118cdaa70000000000000000000000000000000000000000000000000000000081526004016122ab91906124dd565b60405180910390fd5b565b6000600160009054906101000a900473ffffffffffffffffffffffffffffffffffffffff16905081600160006101000a81548173ffffffffffffffffffffffffffffffffffffffff021916908373ffffffffffffffffffffffffffffffffffffffff1602179055508173ffffffffffffffffffffffffffffffffffffffff168173ffffffffffffffffffffffffffffffffffffffff167f8be0079c531659141344cd1fd0a4f28419497f9722a3daafe3b4186f6b6457e060405160405180910390a35050565b6002600054036123b8576040517f3ee5aeb500000000000000000000000000000000000000000000000000000000815260040160405180910390fd5b6002600081905550565b6001600081905550565b600033905090565b600080fd5b600073ffffffffffffffffffffffffffffffffffffffff82169050919050565b6000612404826123d9565b9050919050565b612414816123f9565b811461241f57600080fd5b50565b6000813590506124318161240b565b92915050565b60006020828403121561244d5761244c6123d4565b5b600061245b84828501612422565b91505092915050565b60008115159050919050565b61247981612464565b82525050565b60006020820190506124946000830184612470565b92915050565b6000819050919050565b6124ad8161249a565b82525050565b60006020820190506124c860008301846124a4565b92915050565b6124d7816123f9565b82525050565b60006020820190506124f260008301846124ce565b92915050565b6125018161249a565b811461250c57600080fd5b50565b60008135905061251e816124f8565b92915050565b60006020828403121561253a576125396123d4565b5b60006125488482850161250f565b91505092915050565b6003811061255e57600080fd5b50565b60008135905061257081612551565b92915050565b60008060006060848603121561258f5761258e6123d4565b5b600061259d86828701612422565b93505060206125ae8682870161250f565b92505060406125bf86828701612561565b9150509250925092565b600080604083850312156125e0576125df6123d4565b5b60006125ee8582860161250f565b92505060206125ff85828601612561565b9150509250929050565b6000819050919050565b61261c81612609565b82525050565b60006020820190506126376000830184612613565b92915050565b61264681612609565b811461265157600080fd5b50565b6000813590506126638161263d565b92915050565b60006020828403121561267f5761267e6123d4565b5b600061268d84828501612654565b91505092915050565b7f4e487b7100000000000000000000000000000000000000000000000000000000600052602160045260246000fd5b600381106126d6576126d5612696565b5b50565b60008190506126e7826126c5565b919050565b60006126f7826126d9565b9050919050565b612707816126ec565b82525050565b600060a08201905061272260008301886124a4565b61272f60208301876124ce565b61273c60408301866124a4565b61274960608301856126fe565b61275660808301846124a4565b9695505050505050565b600082825260208201905092915050565b7f4e6577205553445420616464726573732063616e6e6f74206265207a65726f2060008201527f6164647265737300000000000000000000000000000000000000000000000000602082015250565b60006127cd602783612760565b91506127d882612771565b604082019050919050565b600060208201905081810360008301526127fc816127c0565b9050919050565b7f4e657720555344542061646472657373206d757374206265206469666665726560008201527f6e74000000000000000000000000000000000000000000000000000000000000602082015250565b600061285f602283612760565b915061286a82612803565b604082019050919050565b6000602082019050818103600083015261288e81612852565b9050919050565b7f5553445400000000000000000000000000000000000000000000000000000000600082015250565b60006128cb600483612760565b91506128d682612895565b602082019050919050565b600060408201905081810360008301526128fa816128be565b905061290960208301846124ce565b92915050565b7f41646472657373206973206e6f742061204d65726368616e7400000000000000600082015250565b6000612945601983612760565b91506129508261290f565b602082019050919050565b6000602082019050818103600083015261297481612938565b9050919050565b7f4d65726368616e74206e756d6265722069732030000000000000000000000000600082015250565b60006129b1601483612760565b91506129bc8261297b565b602082019050919050565b600060208201905081810360008301526129e0816129a4565b9050919050565b7f4e487b7100000000000000000000000000000000000000000000000000000000600052601160045260246000fd5b6000612a218261249a565b9150612a2c8361249a565b9250828203905081811115612a4457612a436129e7565b5b92915050565b6000604082019050612a5f60008301856124a4565b612a6c60208301846124a4565b9392505050565b7f43616c6c6572206973206e6f742061206d65726368616e740000000000000000600082015250565b6000612aa9601883612760565b9150612ab482612a73565b602082019050919050565b60006020820190508181036000830152612ad881612a9c565b9050919050565b7f5769746864726177616c20616d6f756e74206d7573742062652067726561746560008201527f72207468616e2030000000000000000000000000000000000000000000000000602082015250565b6000612b3b602883612760565b9150612b4682612adf565b604082019050919050565b60006020820190508181036000830152612b6a81612b2e565b9050919050565b7f496e73756666696369656e7420555344542062616c616e636500000000000000600082015250565b6000612ba7601983612760565b9150612bb282612b71565b602082019050919050565b60006020820190508181036000830152612bd681612b9a565b9050919050565b6000604082019050612bf260008301856124ce565b612bff60208301846124a4565b9392505050565b612c0f81612464565b8114612c1a57600080fd5b50565b600081519050612c2c81612c06565b92915050565b600060208284031215612c4857612c476123d4565b5b6000612c5684828501612c1d565b91505092915050565b7f55534454207472616e73666572206661696c6564000000000000000000000000600082015250565b6000612c95601483612760565b9150612ca082612c5f565b602082019050919050565b60006020820190508181036000830152612cc481612c88565b9050919050565b7f496e73756666696369656e7420574254432062616c616e636500000000000000600082015250565b6000612d01601983612760565b9150612d0c82612ccb565b602082019050919050565b60006020820190508181036000830152612d3081612cf4565b9050919050565b7f57425443207472616e73666572206661696c6564000000000000000000000000600082015250565b6000612d6d601483612760565b9150612d7882612d37565b602082019050919050565b60006020820190508181036000830152612d9c81612d60565b9050919050565b7f496e73756666696369656e742045746865722062616c616e6365000000000000600082015250565b6000612dd9601a83612760565b9150612de482612da3565b602082019050919050565b60006020820190508181036000830152612e0881612dcc565b9050919050565b6000606082019050612e2460008301866124a4565b612e3160208301856126fe565b612e3e60408301846124a4565b949350505050565b600081519050612e55816124f8565b92915050565b600060208284031215612e7157612e706123d4565b5b6000612e7f84828501612e46565b91505092915050565b6000606082019050612e9d60008301866124a4565b612eaa60208301856124ce565b612eb760408301846124a4565b949350505050565b7f4e6577205742544320616464726573732063616e6e6f74206265207a65726f2060008201527f6164647265737300000000000000000000000000000000000000000000000000602082015250565b6000612f1b602783612760565b9150612f2682612ebf565b604082019050919050565b60006020820190508181036000830152612f4a81612f0e565b9050919050565b7f4e657720574254432061646472657373206d757374206265206469666665726560008201527f6e74000000000000000000000000000000000000000000000000000000000000602082015250565b6000612fad602283612760565b9150612fb882612f51565b604082019050919050565b60006020820190508181036000830152612fdc81612fa0565b9050919050565b7f5742544300000000000000000000000000000000000000000000000000000000600082015250565b6000613019600483612760565b915061302482612fe3565b602082019050919050565b600060408201905081810360008301526130488161300c565b905061305760208301846124ce565b92915050565b7f416d6f756e74206d7573742062652067726561746572207468616e20302e0000600082015250565b6000613093601e83612760565b915061309e8261305d565b602082019050919050565b600060208201905081810360008301526130c281613086565b9050919050565b60006130d48261249a565b91507fffffffffffffffffffffffffffffffffffffffffffffffffffffffffffffffff8203613106576131056129e7565b5b600182019050919050565b60008160601b9050919050565b600061312982613111565b9050919050565b600061313b8261311e565b9050919050565b61315361314e826123f9565b613130565b82525050565b6000819050919050565b61317461316f8261249a565b613159565b82525050565b60008160f81b9050919050565b60006131928261317a565b9050919050565b6131aa6131a5826126ec565b613187565b82525050565b60006131bc8287613142565b6014820191506131cc8286613163565b6020820191506131dc8285613163565b6020820191506131ec8284613199565b60018201915081905095945050505050565b600060808201905061321360008301876124a4565b61322060208301866124a4565b61322d60408301856126fe565b61323a60608301846124a4565b95945050505050565b7f4164647265737320697320616c72656164792061204d65726368616e74000000600082015250565b6000613279601d83612760565b915061328482613243565b602082019050919050565b600060208201905081810360008301526132a88161326c565b9050919050565b7f41646472657373206973206e6f742076616c6964000000000000000000000000600082015250565b60006132e5601483612760565b91506132f0826132af565b602082019050919050565b60006020820190508181036000830152613314816132d8565b9050919050565b60006133268261249a565b91506133318361249a565b9250828201905080821115613349576133486129e7565b5b92915050565b7f496e76616c6964207061796d656e74206c696e6b2e0000000000000000000000600082015250565b6000613385601583612760565b91506133908261334f565b602082019050919050565b600060208201905081810360008301526133b481613378565b9050919050565b60006133c68261249a565b91506133d18361249a565b92508282026133df8161249a565b915082820484148315176133f6576133f56129e7565b5b5092915050565b7f4e487b7100000000000000000000000000000000000000000000000000000000600052601260045260246000fd5b60006134378261249a565b91506134428361249a565b925082613452576134516133fd565b5b828204905092915050565b600060608201905061347260008301866124ce565b61347f60208301856124ce565b61348c60408301846124a4565b949350505050565b7f5061796d656e74207472616e73666572206661696c6564000000000000000000600082015250565b60006134ca601783612760565b91506134d582613494565b602082019050919050565b600060208201905081810360008301526134f9816134bd565b9050919050565b600060408201905061351560008301856124a4565b61352260208301846126fe565b939250505056fea26469706673582212202cfbad9099524c4cb1acb8fd401564d118c1f460fbe4171f1829c4ede541110964736f6c63430008140033",
  "linkReferences": {},
  "deployedLinkReferences": {}
}