{
  "_format": "hh-sol-artifact-1",
  "contractName": "Payblauq_Merchant",
  "sourceName": "contracts/Web3PaymentGateway.sol",
  "abi": [
    {
      "inputs": [
        {
          "internalType": "address",
          "name": "_usdtAddress",
          "type": "address"
        }
      ],
      "stateMutability": "nonpayable",
      "type": "constructor"
    },
    {
      "anonymous": false,
      "inputs": [
        {
          "indexed": true,
          "internalType": "address",
          "name": "merchantAddress",
          "type": "address"
        },
        {
          "indexed": false,
          "internalType": "uint256",
          "name": "time",
          "type": "uint256"
        }
      ],
      "name": "MerchantAdded",
      "type": "event"
    },
    {
      "anonymous": false,
      "inputs": [
        {
          "indexed": true,
          "internalType": "address",
          "name": "merchantAddress",
          "type": "address"
        },
        {
          "indexed": false,
          "internalType": "uint256",
          "name": "time",
          "type": "uint256"
        }
      ],
      "name": "MerchantRemoved",
      "type": "event"
    },
    {
      "anonymous": false,
      "inputs": [
        {
          "indexed": true,
          "internalType": "bytes32",
          "name": "linkId",
          "type": "bytes32"
        },
        {
          "indexed": true,
          "internalType": "address",
          "name": "merchant",
          "type": "address"
        },
        {
          "indexed": false,
          "internalType": "uint256",
          "name": "amountInUSDT",
          "type": "uint256"
        }
      ],
      "name": "PaymentLinkGenerated",
      "type": "event"
    },
    {
      "anonymous": false,
      "inputs": [
        {
          "indexed": true,
          "internalType": "address",
          "name": "from",
          "type": "address"
        },
        {
          "indexed": false,
          "internalType": "uint256",
          "name": "amountInUSDT",
          "type": "uint256"
        }
      ],
      "name": "PaymentReceived",
      "type": "event"
    },
    {
      "anonymous": false,
      "inputs": [
        {
          "indexed": true,
          "internalType": "bytes32",
          "name": "role",
          "type": "bytes32"
        },
        {
          "indexed": true,
          "internalType": "bytes32",
          "name": "previousAdminRole",
          "type": "bytes32"
        },
        {
          "indexed": true,
          "internalType": "bytes32",
          "name": "newAdminRole",
          "type": "bytes32"
        }
      ],
      "name": "RoleAdminChanged",
      "type": "event"
    },
    {
      "anonymous": false,
      "inputs": [
        {
          "indexed": true,
          "internalType": "bytes32",
          "name": "role",
          "type": "bytes32"
        },
        {
          "indexed": true,
          "internalType": "address",
          "name": "account",
          "type": "address"
        },
        {
          "indexed": true,
          "internalType": "address",
          "name": "sender",
          "type": "address"
        }
      ],
      "name": "RoleGranted",
      "type": "event"
    },
    {
      "anonymous": false,
      "inputs": [
        {
          "indexed": true,
          "internalType": "bytes32",
          "name": "role",
          "type": "bytes32"
        },
        {
          "indexed": true,
          "internalType": "address",
          "name": "account",
          "type": "address"
        },
        {
          "indexed": true,
          "internalType": "address",
          "name": "sender",
          "type": "address"
        }
      ],
      "name": "RoleRevoked",
      "type": "event"
    },
    {
      "anonymous": false,
      "inputs": [
        {
          "indexed": true,
          "internalType": "address",
          "name": "to",
          "type": "address"
        },
        {
          "indexed": false,
          "internalType": "uint256",
          "name": "amount",
          "type": "uint256"
        }
      ],
      "name": "Withdrawal",
      "type": "event"
    },
    {
      "inputs": [],
      "name": "DEFAULT_ADMIN_ROLE",
      "outputs": [
        {
          "internalType": "bytes32",
          "name": "",
          "type": "bytes32"
        }
      ],
      "stateMutability": "view",
      "type": "function"
    },
    {
      "inputs": [],
      "name": "addMerchant",
      "outputs": [],
      "stateMutability": "nonpayable",
      "type": "function"
    },
    {
      "inputs": [
        {
          "internalType": "uint256",
          "name": "amountInUsdt",
          "type": "uint256"
        }
      ],
      "name": "generatePaymentLink",
      "outputs": [
        {
          "internalType": "bytes32",
          "name": "",
          "type": "bytes32"
        }
      ],
      "stateMutability": "nonpayable",
      "type": "function"
    },
    {
      "inputs": [],
      "name": "getBalance",
      "outputs": [
        {
          "internalType": "uint256",
          "name": "",
          "type": "uint256"
        }
      ],
      "stateMutability": "view",
      "type": "function"
    },
    {
      "inputs": [
        {
          "internalType": "bytes32",
          "name": "role",
          "type": "bytes32"
        }
      ],
      "name": "getRoleAdmin",
      "outputs": [
        {
          "internalType": "bytes32",
          "name": "",
          "type": "bytes32"
        }
      ],
      "stateMutability": "view",
      "type": "function"
    },
    {
      "inputs": [
        {
          "internalType": "bytes32",
          "name": "role",
          "type": "bytes32"
        },
        {
          "internalType": "address",
          "name": "account",
          "type": "address"
        }
      ],
      "name": "grantRole",
      "outputs": [],
      "stateMutability": "nonpayable",
      "type": "function"
    },
    {
      "inputs": [
        {
          "internalType": "bytes32",
          "name": "role",
          "type": "bytes32"
        },
        {
          "internalType": "address",
          "name": "account",
          "type": "address"
        }
      ],
      "name": "hasRole",
      "outputs": [
        {
          "internalType": "bool",
          "name": "",
          "type": "bool"
        }
      ],
      "stateMutability": "view",
      "type": "function"
    },
    {
      "inputs": [
        {
          "internalType": "address",
          "name": "",
          "type": "address"
        }
      ],
      "name": "merchants",
      "outputs": [
        {
          "internalType": "bool",
          "name": "",
          "type": "bool"
        }
      ],
      "stateMutability": "view",
      "type": "function"
    },
    {
      "inputs": [],
      "name": "owner",
      "outputs": [
        {
          "internalType": "address",
          "name": "",
          "type": "address"
        }
      ],
      "stateMutability": "view",
      "type": "function"
    },
    {
      "inputs": [
        {
          "internalType": "bytes32",
          "name": "linkId",
          "type": "bytes32"
        }
      ],
      "name": "payWithLink",
      "outputs": [],
      "stateMutability": "nonpayable",
      "type": "function"
    },
    {
      "inputs": [
        {
          "internalType": "bytes32",
          "name": "",
          "type": "bytes32"
        }
      ],
      "name": "paymentDetails",
      "outputs": [
        {
          "internalType": "uint256",
          "name": "amount",
          "type": "uint256"
        },
        {
          "internalType": "address",
          "name": "merchantAddress",
          "type": "address"
        }
      ],
      "stateMutability": "view",
      "type": "function"
    },
    {
      "inputs": [
        {
          "internalType": "address",
          "name": "merchantAddress",
          "type": "address"
        }
      ],
      "name": "removeMerchant",
      "outputs": [],
      "stateMutability": "nonpayable",
      "type": "function"
    },
    {
      "inputs": [
        {
          "internalType": "bytes32",
          "name": "role",
          "type": "bytes32"
        },
        {
          "internalType": "address",
          "name": "account",
          "type": "address"
        }
      ],
      "name": "renounceRole",
      "outputs": [],
      "stateMutability": "nonpayable",
      "type": "function"
    },
    {
      "inputs": [
        {
          "internalType": "bytes32",
          "name": "role",
          "type": "bytes32"
        },
        {
          "internalType": "address",
          "name": "account",
          "type": "address"
        }
      ],
      "name": "revokeRole",
      "outputs": [],
      "stateMutability": "nonpayable",
      "type": "function"
    },
    {
      "inputs": [
        {
          "internalType": "bytes4",
          "name": "interfaceId",
          "type": "bytes4"
        }
      ],
      "name": "supportsInterface",
      "outputs": [
        {
          "internalType": "bool",
          "name": "",
          "type": "bool"
        }
      ],
      "stateMutability": "view",
      "type": "function"
    },
    {
      "inputs": [],
      "name": "usdtAddress",
      "outputs": [
        {
          "internalType": "address",
          "name": "",
          "type": "address"
        }
      ],
      "stateMutability": "view",
      "type": "function"
    },
    {
      "inputs": [
        {
          "internalType": "address",
          "name": "",
          "type": "address"
        }
      ],
      "name": "usdtBalances",
      "outputs": [
        {
          "internalType": "uint256",
          "name": "",
          "type": "uint256"
        }
      ],
      "stateMutability": "view",
      "type": "function"
    },
    {
      "inputs": [
        {
          "internalType": "uint256",
          "name": "amount",
          "type": "uint256"
        }
      ],
      "name": "withdraw",
      "outputs": [],
      "stateMutability": "nonpayable",
      "type": "function"
    }
  ],
  "bytecode": "0x60806040523480156200001157600080fd5b506040516200226138038062002261833981810160405281019062000037919062000132565b600160008190555033600260006101000a81548173ffffffffffffffffffffffffffffffffffffffff021916908373ffffffffffffffffffffffffffffffffffffffff16021790555080600360006101000a81548173ffffffffffffffffffffffffffffffffffffffff021916908373ffffffffffffffffffffffffffffffffffffffff1602179055505062000164565b600080fd5b600073ffffffffffffffffffffffffffffffffffffffff82169050919050565b6000620000fa82620000cd565b9050919050565b6200010c81620000ed565b81146200011857600080fd5b50565b6000815190506200012c8162000101565b92915050565b6000602082840312156200014b576200014a620000c8565b5b60006200015b848285016200011b565b91505092915050565b6120ed80620001746000396000f3fe608060405234801561001057600080fd5b50600436106101165760003560e01c80638da5cb5b116100a2578063cfbacaa211610071578063cfbacaa2146102f3578063d547741f14610324578063ee14e93914610340578063f50ad61714610370578063f53546ed1461037a57610116565b80638da5cb5b1461026957806391d14854146102875780639ab4a445146102b7578063a217fddf146102d557610116565b80632e1a7d4d116100e95780632e1a7d4d146101b55780632f2ff15d146101d157806336568abe146101ed578063582489cb146102095780636968d7141461023957610116565b806301ffc9a71461011b57806312065fe01461014b578063133adab614610169578063248a9ca314610185575b600080fd5b610135600480360381019061013091906115dc565b610396565b6040516101429190611624565b60405180910390f35b610153610410565b6040516101609190611658565b60405180910390f35b610183600480360381019061017e91906116d1565b610457565b005b61019f600480360381019061019a9190611734565b610590565b6040516101ac9190611770565b60405180910390f35b6101cf60048036038101906101ca91906117b7565b6105b0565b005b6101eb60048036038101906101e691906117e4565b6108d3565b005b610207600480360381019061020291906117e4565b6108f4565b005b610223600480360381019061021e91906116d1565b610977565b6040516102309190611658565b60405180910390f35b610253600480360381019061024e91906117b7565b61098f565b6040516102609190611770565b60405180910390f35b610271610b84565b60405161027e9190611833565b60405180910390f35b6102a1600480360381019061029c91906117e4565b610baa565b6040516102ae9190611624565b60405180910390f35b6102bf610c15565b6040516102cc9190611833565b60405180910390f35b6102dd610c3b565b6040516102ea9190611770565b60405180910390f35b61030d60048036038101906103089190611734565b610c42565b60405161031b92919061184e565b60405180910390f35b61033e600480360381019061033991906117e4565b610c86565b005b61035a600480360381019061035591906116d1565b610ca7565b6040516103679190611624565b60405180910390f35b610378610cc7565b005b610394600480360381019061038f9190611734565b610d6f565b005b60007f7965db0b000000000000000000000000000000000000000000000000000000007bffffffffffffffffffffffffffffffffffffffffffffffffffffffff1916827bffffffffffffffffffffffffffffffffffffffffffffffffffffffff1916148061040957506104088261101d565b5b9050919050565b6000600560003373ffffffffffffffffffffffffffffffffffffffff1673ffffffffffffffffffffffffffffffffffffffff16815260200190815260200160002054905090565b600260009054906101000a900473ffffffffffffffffffffffffffffffffffffffff1673ffffffffffffffffffffffffffffffffffffffff163373ffffffffffffffffffffffffffffffffffffffff16146104e7576040517f08c379a00000000000000000000000000000000000000000000000000000000081526004016104de906118fa565b60405180910390fd5b6000600460008373ffffffffffffffffffffffffffffffffffffffff1673ffffffffffffffffffffffffffffffffffffffff16815260200190815260200160002060006101000a81548160ff0219169083151502179055508073ffffffffffffffffffffffffffffffffffffffff167f021387214cc19adc927ffc55485d0f6a84fd87e67b21c431c7ed43a1f4da398f426040516105859190611658565b60405180910390a250565b600060016000838152602001908152602001600020600101549050919050565b60011515600460003373ffffffffffffffffffffffffffffffffffffffff1673ffffffffffffffffffffffffffffffffffffffff16815260200190815260200160002060009054906101000a900460ff16151514610643576040517f08c379a000000000000000000000000000000000000000000000000000000000815260040161063a9061198c565b60405180910390fd5b60008111610686576040517f08c379a000000000000000000000000000000000000000000000000000000000815260040161067d906119f8565b60405180910390fd5b600560003373ffffffffffffffffffffffffffffffffffffffff1673ffffffffffffffffffffffffffffffffffffffff16815260200190815260200160002054811115610708576040517f08c379a00000000000000000000000000000000000000000000000000000000081526004016106ff90611a64565b60405180910390fd5b61075a81600560003373ffffffffffffffffffffffffffffffffffffffff1673ffffffffffffffffffffffffffffffffffffffff1681526020019081526020016000205461108790919063ffffffff16565b600560003373ffffffffffffffffffffffffffffffffffffffff1673ffffffffffffffffffffffffffffffffffffffff168152602001908152602001600020819055506000600360009054906101000a900473ffffffffffffffffffffffffffffffffffffffff1690508073ffffffffffffffffffffffffffffffffffffffff1663a9059cbb33846040518363ffffffff1660e01b81526004016107ff929190611a84565b6020604051808303816000875af115801561081e573d6000803e3d6000fd5b505050506040513d601f19601f820116820180604052508101906108429190611ad9565b610881576040517f08c379a000000000000000000000000000000000000000000000000000000000815260040161087890611b52565b60405180910390fd5b3373ffffffffffffffffffffffffffffffffffffffff167f7fcf532c15f0a6db0bd6d0e038bea71d30d808c7d98cb3bf7268a95bf5081b65836040516108c79190611658565b60405180910390a25050565b6108dc82610590565b6108e58161109d565b6108ef83836110b1565b505050565b6108fc611191565b73ffffffffffffffffffffffffffffffffffffffff168173ffffffffffffffffffffffffffffffffffffffff1614610969576040517f08c379a000000000000000000000000000000000000000000000000000000000815260040161096090611be4565b60405180910390fd5b6109738282611199565b5050565b60056020528060005260406000206000915090505481565b600060011515600460003373ffffffffffffffffffffffffffffffffffffffff1673ffffffffffffffffffffffffffffffffffffffff16815260200190815260200160002060009054906101000a900460ff16151514610a24576040517f08c379a0000000000000000000000000000000000000000000000000000000008152600401610a1b9061198c565b60405180910390fd5b60008211610a67576040517f08c379a0000000000000000000000000000000000000000000000000000000008152600401610a5e906119f8565b60405180910390fd5b600060405180604001604052808481526020013373ffffffffffffffffffffffffffffffffffffffff16815250905060003384604051602001610aab929190611c6d565b60405160208183030381529060405280519060200120905081600660008381526020019081526020016000206000820151816000015560208201518160010160006101000a81548173ffffffffffffffffffffffffffffffffffffffff021916908373ffffffffffffffffffffffffffffffffffffffff1602179055509050503373ffffffffffffffffffffffffffffffffffffffff16817f36f0a2c2e5179ae5ab1ba33a22a89adb9069cdad08d3244d2cd6535ec853d9a886604051610b729190611658565b60405180910390a38092505050919050565b600260009054906101000a900473ffffffffffffffffffffffffffffffffffffffff1681565b60006001600084815260200190815260200160002060000160008373ffffffffffffffffffffffffffffffffffffffff1673ffffffffffffffffffffffffffffffffffffffff16815260200190815260200160002060009054906101000a900460ff16905092915050565b600360009054906101000a900473ffffffffffffffffffffffffffffffffffffffff1681565b6000801b81565b60066020528060005260406000206000915090508060000154908060010160009054906101000a900473ffffffffffffffffffffffffffffffffffffffff16905082565b610c8f82610590565b610c988161109d565b610ca28383611199565b505050565b60046020528060005260406000206000915054906101000a900460ff1681565b6001600460003373ffffffffffffffffffffffffffffffffffffffff1673ffffffffffffffffffffffffffffffffffffffff16815260200190815260200160002060006101000a81548160ff0219169083151502179055503373ffffffffffffffffffffffffffffffffffffffff167fdcd9b74e47ad7a2b13791ca55a80544333071f0ee9d577fcd2cc70aa6c93daa042604051610d659190611658565b60405180910390a2565b6000600660008381526020019081526020016000206000015411610dc8576040517f08c379a0000000000000000000000000000000000000000000000000000000008152600401610dbf90611ce5565b60405180910390fd5b6000600660008381526020019081526020016000206000015490506000600360009054906101000a900473ffffffffffffffffffffffffffffffffffffffff1690508073ffffffffffffffffffffffffffffffffffffffff166323b872dd3330856040518463ffffffff1660e01b8152600401610e4793929190611d05565b6020604051808303816000875af1158015610e66573d6000803e3d6000fd5b505050506040513d601f19601f82011682018060405250810190610e8a9190611ad9565b610ec9576040517f08c379a0000000000000000000000000000000000000000000000000000000008152600401610ec090611b52565b60405180910390fd5b610f5182600560006006600088815260200190815260200160002060010160009054906101000a900473ffffffffffffffffffffffffffffffffffffffff1673ffffffffffffffffffffffffffffffffffffffff1673ffffffffffffffffffffffffffffffffffffffff1681526020019081526020016000205461127b90919063ffffffff16565b600560006006600087815260200190815260200160002060010160009054906101000a900473ffffffffffffffffffffffffffffffffffffffff1673ffffffffffffffffffffffffffffffffffffffff1673ffffffffffffffffffffffffffffffffffffffff168152602001908152602001600020819055503373ffffffffffffffffffffffffffffffffffffffff167f6ef95f06320e7a25a04a175ca677b7052bdd97131872c2192525a629f51be770836040516110109190611658565b60405180910390a2505050565b60007f01ffc9a7000000000000000000000000000000000000000000000000000000007bffffffffffffffffffffffffffffffffffffffffffffffffffffffff1916827bffffffffffffffffffffffffffffffffffffffffffffffffffffffff1916149050919050565b600081836110959190611d6b565b905092915050565b6110ae816110a9611191565b611291565b50565b6110bb8282610baa565b61118d57600180600084815260200190815260200160002060000160008373ffffffffffffffffffffffffffffffffffffffff1673ffffffffffffffffffffffffffffffffffffffff16815260200190815260200160002060006101000a81548160ff021916908315150217905550611132611191565b73ffffffffffffffffffffffffffffffffffffffff168173ffffffffffffffffffffffffffffffffffffffff16837f2f8788117e7eff1d82e926ec794901d17c78024a50270940304540a733656f0d60405160405180910390a45b5050565b600033905090565b6111a38282610baa565b156112775760006001600084815260200190815260200160002060000160008373ffffffffffffffffffffffffffffffffffffffff1673ffffffffffffffffffffffffffffffffffffffff16815260200190815260200160002060006101000a81548160ff02191690831515021790555061121c611191565b73ffffffffffffffffffffffffffffffffffffffff168173ffffffffffffffffffffffffffffffffffffffff16837ff6391f5c32d9c69d2a47ea670b442974b53935d1edc7fd64eb21e047a839171b60405160405180910390a45b5050565b600081836112899190611d9f565b905092915050565b61129b8282610baa565b611312576112a881611316565b6112b68360001c6020611343565b6040516020016112c7929190611edc565b6040516020818303038152906040526040517f08c379a00000000000000000000000000000000000000000000000000000000081526004016113099190611f60565b60405180910390fd5b5050565b606061133c8273ffffffffffffffffffffffffffffffffffffffff16601460ff16611343565b9050919050565b6060600060028360026113569190611f82565b6113609190611d9f565b67ffffffffffffffff81111561137957611378611fc4565b5b6040519080825280601f01601f1916602001820160405280156113ab5781602001600182028036833780820191505090505b5090507f3000000000000000000000000000000000000000000000000000000000000000816000815181106113e3576113e2611ff3565b5b60200101907effffffffffffffffffffffffffffffffffffffffffffffffffffffffffffff1916908160001a9053507f78000000000000000000000000000000000000000000000000000000000000008160018151811061144757611446611ff3565b5b60200101907effffffffffffffffffffffffffffffffffffffffffffffffffffffffffffff1916908160001a905350600060018460026114879190611f82565b6114919190611d9f565b90505b6001811115611531577f3031323334353637383961626364656600000000000000000000000000000000600f8616601081106114d3576114d2611ff3565b5b1a60f81b8282815181106114ea576114e9611ff3565b5b60200101907effffffffffffffffffffffffffffffffffffffffffffffffffffffffffffff1916908160001a905350600485901c94508061152a90612022565b9050611494565b5060008414611575576040517f08c379a000000000000000000000000000000000000000000000000000000000815260040161156c90612097565b60405180910390fd5b8091505092915050565b600080fd5b60007fffffffff0000000000000000000000000000000000000000000000000000000082169050919050565b6115b981611584565b81146115c457600080fd5b50565b6000813590506115d6816115b0565b92915050565b6000602082840312156115f2576115f161157f565b5b6000611600848285016115c7565b91505092915050565b60008115159050919050565b61161e81611609565b82525050565b60006020820190506116396000830184611615565b92915050565b6000819050919050565b6116528161163f565b82525050565b600060208201905061166d6000830184611649565b92915050565b600073ffffffffffffffffffffffffffffffffffffffff82169050919050565b600061169e82611673565b9050919050565b6116ae81611693565b81146116b957600080fd5b50565b6000813590506116cb816116a5565b92915050565b6000602082840312156116e7576116e661157f565b5b60006116f5848285016116bc565b91505092915050565b6000819050919050565b611711816116fe565b811461171c57600080fd5b50565b60008135905061172e81611708565b92915050565b60006020828403121561174a5761174961157f565b5b60006117588482850161171f565b91505092915050565b61176a816116fe565b82525050565b60006020820190506117856000830184611761565b92915050565b6117948161163f565b811461179f57600080fd5b50565b6000813590506117b18161178b565b92915050565b6000602082840312156117cd576117cc61157f565b5b60006117db848285016117a2565b91505092915050565b600080604083850312156117fb576117fa61157f565b5b60006118098582860161171f565b925050602061181a858286016116bc565b9150509250929050565b61182d81611693565b82525050565b60006020820190506118486000830184611824565b92915050565b60006040820190506118636000830185611649565b6118706020830184611824565b9392505050565b600082825260208201905092915050565b7f4f6e6c792074686520636f6e7472616374206f776e65722063616e2063616c6c60008201527f20746869732066756e6374696f6e000000000000000000000000000000000000602082015250565b60006118e4602e83611877565b91506118ef82611888565b604082019050919050565b60006020820190508181036000830152611913816118d7565b9050919050565b7f4f6e6c79206d65726368616e74732063616e2063616c6c20746869732066756e60008201527f6374696f6e000000000000000000000000000000000000000000000000000000602082015250565b6000611976602583611877565b91506119818261191a565b604082019050919050565b600060208201905081810360008301526119a581611969565b9050919050565b7f416d6f756e74206d7573742062652067726561746572207468616e20302e0000600082015250565b60006119e2601e83611877565b91506119ed826119ac565b602082019050919050565b60006020820190508181036000830152611a11816119d5565b9050919050565b7f496e73756666696369656e742062616c616e63652e0000000000000000000000600082015250565b6000611a4e601583611877565b9150611a5982611a18565b602082019050919050565b60006020820190508181036000830152611a7d81611a41565b9050919050565b6000604082019050611a996000830185611824565b611aa66020830184611649565b9392505050565b611ab681611609565b8114611ac157600080fd5b50565b600081519050611ad381611aad565b92915050565b600060208284031215611aef57611aee61157f565b5b6000611afd84828501611ac4565b91505092915050565b7f55534454207472616e73666572206661696c6564000000000000000000000000600082015250565b6000611b3c601483611877565b9150611b4782611b06565b602082019050919050565b60006020820190508181036000830152611b6b81611b2f565b9050919050565b7f416363657373436f6e74726f6c3a2063616e206f6e6c792072656e6f756e636560008201527f20726f6c657320666f722073656c660000000000000000000000000000000000602082015250565b6000611bce602f83611877565b9150611bd982611b72565b604082019050919050565b60006020820190508181036000830152611bfd81611bc1565b9050919050565b60008160601b9050919050565b6000611c1c82611c04565b9050919050565b6000611c2e82611c11565b9050919050565b611c46611c4182611693565b611c23565b82525050565b6000819050919050565b611c67611c628261163f565b611c4c565b82525050565b6000611c798285611c35565b601482019150611c898284611c56565b6020820191508190509392505050565b7f496e76616c6964207061796d656e74206c696e6b2e0000000000000000000000600082015250565b6000611ccf601583611877565b9150611cda82611c99565b602082019050919050565b60006020820190508181036000830152611cfe81611cc2565b9050919050565b6000606082019050611d1a6000830186611824565b611d276020830185611824565b611d346040830184611649565b949350505050565b7f4e487b7100000000000000000000000000000000000000000000000000000000600052601160045260246000fd5b6000611d768261163f565b9150611d818361163f565b9250828203905081811115611d9957611d98611d3c565b5b92915050565b6000611daa8261163f565b9150611db58361163f565b9250828201905080821115611dcd57611dcc611d3c565b5b92915050565b600081905092915050565b7f416363657373436f6e74726f6c3a206163636f756e7420000000000000000000600082015250565b6000611e14601783611dd3565b9150611e1f82611dde565b601782019050919050565b600081519050919050565b60005b83811015611e53578082015181840152602081019050611e38565b60008484015250505050565b6000611e6a82611e2a565b611e748185611dd3565b9350611e84818560208601611e35565b80840191505092915050565b7f206973206d697373696e6720726f6c6520000000000000000000000000000000600082015250565b6000611ec6601183611dd3565b9150611ed182611e90565b601182019050919050565b6000611ee782611e07565b9150611ef38285611e5f565b9150611efe82611eb9565b9150611f0a8284611e5f565b91508190509392505050565b6000601f19601f8301169050919050565b6000611f3282611e2a565b611f3c8185611877565b9350611f4c818560208601611e35565b611f5581611f16565b840191505092915050565b60006020820190508181036000830152611f7a8184611f27565b905092915050565b6000611f8d8261163f565b9150611f988361163f565b9250828202611fa68161163f565b91508282048414831517611fbd57611fbc611d3c565b5b5092915050565b7f4e487b7100000000000000000000000000000000000000000000000000000000600052604160045260246000fd5b7f4e487b7100000000000000000000000000000000000000000000000000000000600052603260045260246000fd5b600061202d8261163f565b9150600082036120405761203f611d3c565b5b600182039050919050565b7f537472696e67733a20686578206c656e67746820696e73756666696369656e74600082015250565b6000612081602083611877565b915061208c8261204b565b602082019050919050565b600060208201905081810360008301526120b081612074565b905091905056fea264697066735822122082927ea247646cd113b86e10ebc5824fb7b56d02e4abc9b3477b4b621d924dc264736f6c63430008130033",
  "linkReferences": {},
  "deployedLinkReferences": {}
}